{
	"contracts/SampleContract.sol": {
		"SampleContract": {
			"abi": [
				{
					"inputs": [],
					"stateMutability": "nonpayable",
					"type": "constructor"
				},
				{
					"inputs": [],
					"name": "myString",
					"outputs": [
						{
							"internalType": "string",
							"name": "",
							"type": "string"
						}
					],
					"stateMutability": "view",
					"type": "function"
				},
				{
					"inputs": [],
					"name": "owner",
					"outputs": [
						{
							"internalType": "address",
							"name": "",
							"type": "address"
						}
					],
					"stateMutability": "view",
					"type": "function"
				},
				{
					"inputs": [
						{
							"internalType": "string",
							"name": "_myString",
							"type": "string"
						}
					],
					"name": "updateString",
					"outputs": [],
					"stateMutability": "payable",
					"type": "function"
				}
			],
			"devdoc": {
				"kind": "dev",
				"methods": {},
				"version": 1
			},
			"evm": {
				"assembly": "    /* \"contracts/SampleContract.sol\":61:443  contract SampleContract {... */\n  mstore(0x40, 0x80)\n    /* \"contracts/SampleContract.sol\":92:129  string public myString =\"Hello World\" */\n  mload(0x40)\n  dup1\n  0x40\n  add\n  0x40\n  mstore\n  dup1\n  0x0b\n  dup2\n  mstore\n  0x20\n  add\n  0x48656c6c6f20576f726c64000000000000000000000000000000000000000000\n  dup2\n  mstore\n  pop\n  0x00\n  swap1\n  dup2\n  tag_1\n  swap2\n  swap1\n  tag_2\n  jump\t// in\ntag_1:\n  pop\n    /* \"contracts/SampleContract.sol\":165:215  constructor(){... */\n  callvalue\n  dup1\n  iszero\n  tag_3\n  jumpi\n  0x00\n  dup1\n  revert\ntag_3:\n  pop\n    /* \"contracts/SampleContract.sol\":197:207  msg.sender */\n  caller\n    /* \"contracts/SampleContract.sol\":189:194  owner */\n  0x01\n  0x00\n    /* \"contracts/SampleContract.sol\":189:207  owner = msg.sender */\n  0x0100\n  exp\n  dup2\n  sload\n  dup2\n  0xffffffffffffffffffffffffffffffffffffffff\n  mul\n  not\n  and\n  swap1\n  dup4\n  0xffffffffffffffffffffffffffffffffffffffff\n  and\n  mul\n  or\n  swap1\n  sstore\n  pop\n    /* \"contracts/SampleContract.sol\":61:443  contract SampleContract {... */\n  jump(tag_6)\n    /* \"#utility.yul\":7:106   */\ntag_7:\n    /* \"#utility.yul\":59:65   */\n  0x00\n    /* \"#utility.yul\":93:98   */\n  dup2\n    /* \"#utility.yul\":87:99   */\n  mload\n    /* \"#utility.yul\":77:99   */\n  swap1\n  pop\n    /* \"#utility.yul\":7:106   */\n  swap2\n  swap1\n  pop\n  jump\t// out\n    /* \"#utility.yul\":112:292   */\ntag_8:\n    /* \"#utility.yul\":160:237   */\n  0x4e487b7100000000000000000000000000000000000000000000000000000000\n    /* \"#utility.yul\":157:158   */\n  0x00\n    /* \"#utility.yul\":150:238   */\n  mstore\n    /* \"#utility.yul\":257:261   */\n  0x41\n    /* \"#utility.yul\":254:255   */\n  0x04\n    /* \"#utility.yul\":247:262   */\n  mstore\n    /* \"#utility.yul\":281:285   */\n  0x24\n    /* \"#utility.yul\":278:279   */\n  0x00\n    /* \"#utility.yul\":271:286   */\n  revert\n    /* \"#utility.yul\":298:478   */\ntag_9:\n    /* \"#utility.yul\":346:423   */\n  0x4e487b7100000000000000000000000000000000000000000000000000000000\n    /* \"#utility.yul\":343:344   */\n  0x00\n    /* \"#utility.yul\":336:424   */\n  mstore\n    /* \"#utility.yul\":443:447   */\n  0x22\n    /* \"#utility.yul\":440:441   */\n  0x04\n    /* \"#utility.yul\":433:448   */\n  mstore\n    /* \"#utility.yul\":467:471   */\n  0x24\n    /* \"#utility.yul\":464:465   */\n  0x00\n    /* \"#utility.yul\":457:472   */\n  revert\n    /* \"#utility.yul\":484:804   */\ntag_10:\n    /* \"#utility.yul\":528:534   */\n  0x00\n    /* \"#utility.yul\":565:566   */\n  0x02\n    /* \"#utility.yul\":559:563   */\n  dup3\n    /* \"#utility.yul\":555:567   */\n  div\n    /* \"#utility.yul\":545:567   */\n  swap1\n  pop\n    /* \"#utility.yul\":612:613   */\n  0x01\n    /* \"#utility.yul\":606:610   */\n  dup3\n    /* \"#utility.yul\":602:614   */\n  and\n    /* \"#utility.yul\":633:651   */\n  dup1\n    /* \"#utility.yul\":623:704   */\n  tag_32\n  jumpi\n    /* \"#utility.yul\":689:693   */\n  0x7f\n    /* \"#utility.yul\":681:687   */\n  dup3\n    /* \"#utility.yul\":677:694   */\n  and\n    /* \"#utility.yul\":667:694   */\n  swap2\n  pop\n    /* \"#utility.yul\":623:704   */\ntag_32:\n    /* \"#utility.yul\":751:753   */\n  0x20\n    /* \"#utility.yul\":743:749   */\n  dup3\n    /* \"#utility.yul\":740:754   */\n  lt\n    /* \"#utility.yul\":720:738   */\n  dup2\n    /* \"#utility.yul\":717:755   */\n  sub\n    /* \"#utility.yul\":714:798   */\n  tag_33\n  jumpi\n    /* \"#utility.yul\":770:788   */\n  tag_34\n  tag_9\n  jump\t// in\ntag_34:\n    /* \"#utility.yul\":714:798   */\ntag_33:\n    /* \"#utility.yul\":535:804   */\n  pop\n    /* \"#utility.yul\":484:804   */\n  swap2\n  swap1\n  pop\n  jump\t// out\n    /* \"#utility.yul\":810:951   */\ntag_11:\n    /* \"#utility.yul\":859:863   */\n  0x00\n    /* \"#utility.yul\":882:885   */\n  dup2\n    /* \"#utility.yul\":874:885   */\n  swap1\n  pop\n    /* \"#utility.yul\":905:908   */\n  dup2\n    /* \"#utility.yul\":902:903   */\n  0x00\n    /* \"#utility.yul\":895:909   */\n  mstore\n    /* \"#utility.yul\":939:943   */\n  0x20\n    /* \"#utility.yul\":936:937   */\n  0x00\n    /* \"#utility.yul\":926:944   */\n  keccak256\n    /* \"#utility.yul\":918:944   */\n  swap1\n  pop\n    /* \"#utility.yul\":810:951   */\n  swap2\n  swap1\n  pop\n  jump\t// out\n    /* \"#utility.yul\":957:1050   */\ntag_12:\n    /* \"#utility.yul\":994:1000   */\n  0x00\n    /* \"#utility.yul\":1041:1043   */\n  0x20\n    /* \"#utility.yul\":1036:1038   */\n  0x1f\n    /* \"#utility.yul\":1029:1034   */\n  dup4\n    /* \"#utility.yul\":1025:1039   */\n  add\n    /* \"#utility.yul\":1021:1044   */\n  div\n    /* \"#utility.yul\":1011:1044   */\n  swap1\n  pop\n    /* \"#utility.yul\":957:1050   */\n  swap2\n  swap1\n  pop\n  jump\t// out\n    /* \"#utility.yul\":1056:1163   */\ntag_13:\n    /* \"#utility.yul\":1100:1108   */\n  0x00\n    /* \"#utility.yul\":1150:1155   */\n  dup3\n    /* \"#utility.yul\":1144:1148   */\n  dup3\n    /* \"#utility.yul\":1140:1156   */\n  shl\n    /* \"#utility.yul\":1119:1156   */\n  swap1\n  pop\n    /* \"#utility.yul\":1056:1163   */\n  swap3\n  swap2\n  pop\n  pop\n  jump\t// out\n    /* \"#utility.yul\":1169:1562   */\ntag_14:\n    /* \"#utility.yul\":1238:1244   */\n  0x00\n    /* \"#utility.yul\":1288:1289   */\n  0x08\n    /* \"#utility.yul\":1276:1286   */\n  dup4\n    /* \"#utility.yul\":1272:1290   */\n  mul\n    /* \"#utility.yul\":1311:1408   */\n  tag_39\n    /* \"#utility.yul\":1341:1407   */\n  0xffffffffffffffffffffffffffffffffffffffffffffffffffffffffffffffff\n    /* \"#utility.yul\":1330:1339   */\n  dup3\n    /* \"#utility.yul\":1311:1408   */\n  tag_13\n  jump\t// in\ntag_39:\n    /* \"#utility.yul\":1429:1468   */\n  tag_40\n    /* \"#utility.yul\":1459:1467   */\n  dup7\n    /* \"#utility.yul\":1448:1457   */\n  dup4\n    /* \"#utility.yul\":1429:1468   */\n  tag_13\n  jump\t// in\ntag_40:\n    /* \"#utility.yul\":1417:1468   */\n  swap6\n  pop\n    /* \"#utility.yul\":1501:1505   */\n  dup1\n    /* \"#utility.yul\":1497:1506   */\n  not\n    /* \"#utility.yul\":1490:1495   */\n  dup5\n    /* \"#utility.yul\":1486:1507   */\n  and\n    /* \"#utility.yul\":1477:1507   */\n  swap4\n  pop\n    /* \"#utility.yul\":1550:1554   */\n  dup1\n    /* \"#utility.yul\":1540:1548   */\n  dup7\n    /* \"#utility.yul\":1536:1555   */\n  and\n    /* \"#utility.yul\":1529:1534   */\n  dup5\n    /* \"#utility.yul\":1526:1556   */\n  or\n    /* \"#utility.yul\":1516:1556   */\n  swap3\n  pop\n    /* \"#utility.yul\":1245:1562   */\n  pop\n  pop\n    /* \"#utility.yul\":1169:1562   */\n  swap4\n  swap3\n  pop\n  pop\n  pop\n  jump\t// out\n    /* \"#utility.yul\":1568:1645   */\ntag_15:\n    /* \"#utility.yul\":1605:1612   */\n  0x00\n    /* \"#utility.yul\":1634:1639   */\n  dup2\n    /* \"#utility.yul\":1623:1639   */\n  swap1\n  pop\n    /* \"#utility.yul\":1568:1645   */\n  swap2\n  swap1\n  pop\n  jump\t// out\n    /* \"#utility.yul\":1651:1711   */\ntag_16:\n    /* \"#utility.yul\":1679:1682   */\n  0x00\n    /* \"#utility.yul\":1700:1705   */\n  dup2\n    /* \"#utility.yul\":1693:1705   */\n  swap1\n  pop\n    /* \"#utility.yul\":1651:1711   */\n  swap2\n  swap1\n  pop\n  jump\t// out\n    /* \"#utility.yul\":1717:1859   */\ntag_17:\n    /* \"#utility.yul\":1767:1776   */\n  0x00\n    /* \"#utility.yul\":1800:1853   */\n  tag_44\n    /* \"#utility.yul\":1818:1852   */\n  tag_45\n    /* \"#utility.yul\":1827:1851   */\n  tag_46\n    /* \"#utility.yul\":1845:1850   */\n  dup5\n    /* \"#utility.yul\":1827:1851   */\n  tag_15\n  jump\t// in\ntag_46:\n    /* \"#utility.yul\":1818:1852   */\n  tag_16\n  jump\t// in\ntag_45:\n    /* \"#utility.yul\":1800:1853   */\n  tag_15\n  jump\t// in\ntag_44:\n    /* \"#utility.yul\":1787:1853   */\n  swap1\n  pop\n    /* \"#utility.yul\":1717:1859   */\n  swap2\n  swap1\n  pop\n  jump\t// out\n    /* \"#utility.yul\":1865:1940   */\ntag_18:\n    /* \"#utility.yul\":1908:1911   */\n  0x00\n    /* \"#utility.yul\":1929:1934   */\n  dup2\n    /* \"#utility.yul\":1922:1934   */\n  swap1\n  pop\n    /* \"#utility.yul\":1865:1940   */\n  swap2\n  swap1\n  pop\n  jump\t// out\n    /* \"#utility.yul\":1946:2215   */\ntag_19:\n    /* \"#utility.yul\":2056:2095   */\n  tag_49\n    /* \"#utility.yul\":2087:2094   */\n  dup4\n    /* \"#utility.yul\":2056:2095   */\n  tag_17\n  jump\t// in\ntag_49:\n    /* \"#utility.yul\":2117:2208   */\n  tag_50\n    /* \"#utility.yul\":2166:2207   */\n  tag_51\n    /* \"#utility.yul\":2190:2206   */\n  dup3\n    /* \"#utility.yul\":2166:2207   */\n  tag_18\n  jump\t// in\ntag_51:\n    /* \"#utility.yul\":2158:2164   */\n  dup5\n    /* \"#utility.yul\":2151:2155   */\n  dup5\n    /* \"#utility.yul\":2145:2156   */\n  sload\n    /* \"#utility.yul\":2117:2208   */\n  tag_14\n  jump\t// in\ntag_50:\n    /* \"#utility.yul\":2111:2115   */\n  dup3\n    /* \"#utility.yul\":2104:2209   */\n  sstore\n    /* \"#utility.yul\":2022:2215   */\n  pop\n    /* \"#utility.yul\":1946:2215   */\n  pop\n  pop\n  pop\n  jump\t// out\n    /* \"#utility.yul\":2221:2294   */\ntag_20:\n    /* \"#utility.yul\":2266:2269   */\n  0x00\n    /* \"#utility.yul\":2221:2294   */\n  swap1\n  jump\t// out\n    /* \"#utility.yul\":2300:2489   */\ntag_21:\n    /* \"#utility.yul\":2377:2409   */\n  tag_54\n  tag_20\n  jump\t// in\ntag_54:\n    /* \"#utility.yul\":2418:2483   */\n  tag_55\n    /* \"#utility.yul\":2476:2482   */\n  dup2\n    /* \"#utility.yul\":2468:2474   */\n  dup5\n    /* \"#utility.yul\":2462:2466   */\n  dup5\n    /* \"#utility.yul\":2418:2483   */\n  tag_19\n  jump\t// in\ntag_55:\n    /* \"#utility.yul\":2353:2489   */\n  pop\n    /* \"#utility.yul\":2300:2489   */\n  pop\n  pop\n  jump\t// out\n    /* \"#utility.yul\":2495:2681   */\ntag_22:\n    /* \"#utility.yul\":2555:2675   */\ntag_57:\n    /* \"#utility.yul\":2572:2575   */\n  dup2\n    /* \"#utility.yul\":2565:2570   */\n  dup2\n    /* \"#utility.yul\":2562:2576   */\n  lt\n    /* \"#utility.yul\":2555:2675   */\n  iszero\n  tag_59\n  jumpi\n    /* \"#utility.yul\":2626:2665   */\n  tag_60\n    /* \"#utility.yul\":2663:2664   */\n  0x00\n    /* \"#utility.yul\":2656:2661   */\n  dup3\n    /* \"#utility.yul\":2626:2665   */\n  tag_21\n  jump\t// in\ntag_60:\n    /* \"#utility.yul\":2599:2600   */\n  0x01\n    /* \"#utility.yul\":2592:2597   */\n  dup2\n    /* \"#utility.yul\":2588:2601   */\n  add\n    /* \"#utility.yul\":2579:2601   */\n  swap1\n  pop\n    /* \"#utility.yul\":2555:2675   */\n  jump(tag_57)\ntag_59:\n    /* \"#utility.yul\":2495:2681   */\n  pop\n  pop\n  jump\t// out\n    /* \"#utility.yul\":2687:3230   */\ntag_23:\n    /* \"#utility.yul\":2788:2790   */\n  0x1f\n    /* \"#utility.yul\":2783:2786   */\n  dup3\n    /* \"#utility.yul\":2780:2791   */\n  gt\n    /* \"#utility.yul\":2777:3223   */\n  iszero\n  tag_62\n  jumpi\n    /* \"#utility.yul\":2822:2860   */\n  tag_63\n    /* \"#utility.yul\":2854:2859   */\n  dup2\n    /* \"#utility.yul\":2822:2860   */\n  tag_11\n  jump\t// in\ntag_63:\n    /* \"#utility.yul\":2906:2935   */\n  tag_64\n    /* \"#utility.yul\":2924:2934   */\n  dup5\n    /* \"#utility.yul\":2906:2935   */\n  tag_12\n  jump\t// in\ntag_64:\n    /* \"#utility.yul\":2896:2904   */\n  dup2\n    /* \"#utility.yul\":2892:2936   */\n  add\n    /* \"#utility.yul\":3089:3091   */\n  0x20\n    /* \"#utility.yul\":3077:3087   */\n  dup6\n    /* \"#utility.yul\":3074:3092   */\n  lt\n    /* \"#utility.yul\":3071:3120   */\n  iszero\n  tag_65\n  jumpi\n    /* \"#utility.yul\":3110:3118   */\n  dup2\n    /* \"#utility.yul\":3095:3118   */\n  swap1\n  pop\n    /* \"#utility.yul\":3071:3120   */\ntag_65:\n    /* \"#utility.yul\":3133:3213   */\n  tag_66\n    /* \"#utility.yul\":3189:3211   */\n  tag_67\n    /* \"#utility.yul\":3207:3210   */\n  dup6\n    /* \"#utility.yul\":3189:3211   */\n  tag_12\n  jump\t// in\ntag_67:\n    /* \"#utility.yul\":3179:3187   */\n  dup4\n    /* \"#utility.yul\":3175:3212   */\n  add\n    /* \"#utility.yul\":3162:3173   */\n  dup3\n    /* \"#utility.yul\":3133:3213   */\n  tag_22\n  jump\t// in\ntag_66:\n    /* \"#utility.yul\":2792:3223   */\n  pop\n  pop\n    /* \"#utility.yul\":2777:3223   */\ntag_62:\n    /* \"#utility.yul\":2687:3230   */\n  pop\n  pop\n  pop\n  jump\t// out\n    /* \"#utility.yul\":3236:3353   */\ntag_24:\n    /* \"#utility.yul\":3290:3298   */\n  0x00\n    /* \"#utility.yul\":3340:3345   */\n  dup3\n    /* \"#utility.yul\":3334:3338   */\n  dup3\n    /* \"#utility.yul\":3330:3346   */\n  shr\n    /* \"#utility.yul\":3309:3346   */\n  swap1\n  pop\n    /* \"#utility.yul\":3236:3353   */\n  swap3\n  swap2\n  pop\n  pop\n  jump\t// out\n    /* \"#utility.yul\":3359:3528   */\ntag_25:\n    /* \"#utility.yul\":3403:3409   */\n  0x00\n    /* \"#utility.yul\":3436:3487   */\n  tag_70\n    /* \"#utility.yul\":3484:3485   */\n  0x00\n    /* \"#utility.yul\":3480:3486   */\n  not\n    /* \"#utility.yul\":3472:3477   */\n  dup5\n    /* \"#utility.yul\":3469:3470   */\n  0x08\n    /* \"#utility.yul\":3465:3478   */\n  mul\n    /* \"#utility.yul\":3436:3487   */\n  tag_24\n  jump\t// in\ntag_70:\n    /* \"#utility.yul\":3432:3488   */\n  not\n    /* \"#utility.yul\":3517:3521   */\n  dup1\n    /* \"#utility.yul\":3511:3515   */\n  dup4\n    /* \"#utility.yul\":3507:3522   */\n  and\n    /* \"#utility.yul\":3497:3522   */\n  swap2\n  pop\n    /* \"#utility.yul\":3410:3528   */\n  pop\n    /* \"#utility.yul\":3359:3528   */\n  swap3\n  swap2\n  pop\n  pop\n  jump\t// out\n    /* \"#utility.yul\":3533:3828   */\ntag_26:\n    /* \"#utility.yul\":3609:3613   */\n  0x00\n    /* \"#utility.yul\":3755:3784   */\n  tag_72\n    /* \"#utility.yul\":3780:3783   */\n  dup4\n    /* \"#utility.yul\":3774:3778   */\n  dup4\n    /* \"#utility.yul\":3755:3784   */\n  tag_25\n  jump\t// in\ntag_72:\n    /* \"#utility.yul\":3747:3784   */\n  swap2\n  pop\n    /* \"#utility.yul\":3817:3820   */\n  dup3\n    /* \"#utility.yul\":3814:3815   */\n  0x02\n    /* \"#utility.yul\":3810:3821   */\n  mul\n    /* \"#utility.yul\":3804:3808   */\n  dup3\n    /* \"#utility.yul\":3801:3822   */\n  or\n    /* \"#utility.yul\":3793:3822   */\n  swap1\n  pop\n    /* \"#utility.yul\":3533:3828   */\n  swap3\n  swap2\n  pop\n  pop\n  jump\t// out\n    /* \"#utility.yul\":3833:5228   */\ntag_2:\n    /* \"#utility.yul\":3950:3987   */\n  tag_74\n    /* \"#utility.yul\":3983:3986   */\n  dup3\n    /* \"#utility.yul\":3950:3987   */\n  tag_7\n  jump\t// in\ntag_74:\n    /* \"#utility.yul\":4052:4070   */\n  0xffffffffffffffff\n    /* \"#utility.yul\":4044:4050   */\n  dup2\n    /* \"#utility.yul\":4041:4071   */\n  gt\n    /* \"#utility.yul\":4038:4094   */\n  iszero\n  tag_75\n  jumpi\n    /* \"#utility.yul\":4074:4092   */\n  tag_76\n  tag_8\n  jump\t// in\ntag_76:\n    /* \"#utility.yul\":4038:4094   */\ntag_75:\n    /* \"#utility.yul\":4118:4156   */\n  tag_77\n    /* \"#utility.yul\":4150:4154   */\n  dup3\n    /* \"#utility.yul\":4144:4155   */\n  sload\n    /* \"#utility.yul\":4118:4156   */\n  tag_10\n  jump\t// in\ntag_77:\n    /* \"#utility.yul\":4203:4270   */\n  tag_78\n    /* \"#utility.yul\":4263:4269   */\n  dup3\n    /* \"#utility.yul\":4255:4261   */\n  dup3\n    /* \"#utility.yul\":4249:4253   */\n  dup6\n    /* \"#utility.yul\":4203:4270   */\n  tag_23\n  jump\t// in\ntag_78:\n    /* \"#utility.yul\":4297:4298   */\n  0x00\n    /* \"#utility.yul\":4321:4325   */\n  0x20\n    /* \"#utility.yul\":4308:4325   */\n  swap1\n  pop\n    /* \"#utility.yul\":4353:4355   */\n  0x1f\n    /* \"#utility.yul\":4345:4351   */\n  dup4\n    /* \"#utility.yul\":4342:4356   */\n  gt\n    /* \"#utility.yul\":4370:4371   */\n  0x01\n    /* \"#utility.yul\":4365:4983   */\n  dup2\n  eq\n  tag_80\n  jumpi\n    /* \"#utility.yul\":5027:5028   */\n  0x00\n    /* \"#utility.yul\":5044:5050   */\n  dup5\n    /* \"#utility.yul\":5041:5118   */\n  iszero\n  tag_81\n  jumpi\n    /* \"#utility.yul\":5093:5102   */\n  dup3\n    /* \"#utility.yul\":5088:5091   */\n  dup8\n    /* \"#utility.yul\":5084:5103   */\n  add\n    /* \"#utility.yul\":5078:5104   */\n  mload\n    /* \"#utility.yul\":5069:5104   */\n  swap1\n  pop\n    /* \"#utility.yul\":5041:5118   */\ntag_81:\n    /* \"#utility.yul\":5144:5211   */\n  tag_82\n    /* \"#utility.yul\":5204:5210   */\n  dup6\n    /* \"#utility.yul\":5197:5202   */\n  dup3\n    /* \"#utility.yul\":5144:5211   */\n  tag_26\n  jump\t// in\ntag_82:\n    /* \"#utility.yul\":5138:5142   */\n  dup7\n    /* \"#utility.yul\":5131:5212   */\n  sstore\n    /* \"#utility.yul\":5000:5222   */\n  pop\n    /* \"#utility.yul\":4335:5222   */\n  jump(tag_79)\n    /* \"#utility.yul\":4365:4983   */\ntag_80:\n    /* \"#utility.yul\":4417:4421   */\n  0x1f\n    /* \"#utility.yul\":4413:4422   */\n  not\n    /* \"#utility.yul\":4405:4411   */\n  dup5\n    /* \"#utility.yul\":4401:4423   */\n  and\n    /* \"#utility.yul\":4451:4488   */\n  tag_83\n    /* \"#utility.yul\":4483:4487   */\n  dup7\n    /* \"#utility.yul\":4451:4488   */\n  tag_11\n  jump\t// in\ntag_83:\n    /* \"#utility.yul\":4510:4511   */\n  0x00\n    /* \"#utility.yul\":4524:4732   */\ntag_84:\n    /* \"#utility.yul\":4538:4545   */\n  dup3\n    /* \"#utility.yul\":4535:4536   */\n  dup2\n    /* \"#utility.yul\":4532:4546   */\n  lt\n    /* \"#utility.yul\":4524:4732   */\n  iszero\n  tag_86\n  jumpi\n    /* \"#utility.yul\":4617:4626   */\n  dup5\n    /* \"#utility.yul\":4612:4615   */\n  dup10\n    /* \"#utility.yul\":4608:4627   */\n  add\n    /* \"#utility.yul\":4602:4628   */\n  mload\n    /* \"#utility.yul\":4594:4600   */\n  dup3\n    /* \"#utility.yul\":4587:4629   */\n  sstore\n    /* \"#utility.yul\":4668:4669   */\n  0x01\n    /* \"#utility.yul\":4660:4666   */\n  dup3\n    /* \"#utility.yul\":4656:4670   */\n  add\n    /* \"#utility.yul\":4646:4670   */\n  swap2\n  pop\n    /* \"#utility.yul\":4715:4717   */\n  0x20\n    /* \"#utility.yul\":4704:4713   */\n  dup6\n    /* \"#utility.yul\":4700:4718   */\n  add\n    /* \"#utility.yul\":4687:4718   */\n  swap5\n  pop\n    /* \"#utility.yul\":4561:4565   */\n  0x20\n    /* \"#utility.yul\":4558:4559   */\n  dup2\n    /* \"#utility.yul\":4554:4566   */\n  add\n    /* \"#utility.yul\":4549:4566   */\n  swap1\n  pop\n    /* \"#utility.yul\":4524:4732   */\n  jump(tag_84)\ntag_86:\n    /* \"#utility.yul\":4760:4766   */\n  dup7\n    /* \"#utility.yul\":4751:4758   */\n  dup4\n    /* \"#utility.yul\":4748:4767   */\n  lt\n    /* \"#utility.yul\":4745:4924   */\n  iszero\n  tag_87\n  jumpi\n    /* \"#utility.yul\":4818:4827   */\n  dup5\n    /* \"#utility.yul\":4813:4816   */\n  dup10\n    /* \"#utility.yul\":4809:4828   */\n  add\n    /* \"#utility.yul\":4803:4829   */\n  mload\n    /* \"#utility.yul\":4861:4909   */\n  tag_88\n    /* \"#utility.yul\":4903:4907   */\n  0x1f\n    /* \"#utility.yul\":4895:4901   */\n  dup10\n    /* \"#utility.yul\":4891:4908   */\n  and\n    /* \"#utility.yul\":4880:4889   */\n  dup3\n    /* \"#utility.yul\":4861:4909   */\n  tag_25\n  jump\t// in\ntag_88:\n    /* \"#utility.yul\":4853:4859   */\n  dup4\n    /* \"#utility.yul\":4846:4910   */\n  sstore\n    /* \"#utility.yul\":4768:4924   */\n  pop\n    /* \"#utility.yul\":4745:4924   */\ntag_87:\n    /* \"#utility.yul\":4970:4971   */\n  0x01\n    /* \"#utility.yul\":4966:4967   */\n  0x02\n    /* \"#utility.yul\":4958:4964   */\n  dup9\n    /* \"#utility.yul\":4954:4968   */\n  mul\n    /* \"#utility.yul\":4950:4972   */\n  add\n    /* \"#utility.yul\":4944:4948   */\n  dup9\n    /* \"#utility.yul\":4937:4973   */\n  sstore\n    /* \"#utility.yul\":4372:4983   */\n  pop\n  pop\n  pop\n    /* \"#utility.yul\":4335:5222   */\ntag_79:\n  pop\n    /* \"#utility.yul\":3925:5228   */\n  pop\n  pop\n  pop\n    /* \"#utility.yul\":3833:5228   */\n  pop\n  pop\n  jump\t// out\n    /* \"contracts/SampleContract.sol\":61:443  contract SampleContract {... */\ntag_6:\n  dataSize(sub_0)\n  dup1\n  dataOffset(sub_0)\n  0x00\n  codecopy\n  0x00\n  return\nstop\n\nsub_0: assembly {\n        /* \"contracts/SampleContract.sol\":61:443  contract SampleContract {... */\n      mstore(0x40, 0x80)\n      jumpi(tag_1, lt(calldatasize, 0x04))\n      shr(0xe0, calldataload(0x00))\n      dup1\n      0x492bfa18\n      eq\n      tag_2\n      jumpi\n      dup1\n      0x8da5cb5b\n      eq\n      tag_3\n      jumpi\n      dup1\n      0xc3ccf402\n      eq\n      tag_4\n      jumpi\n    tag_1:\n      0x00\n      dup1\n      revert\n        /* \"contracts/SampleContract.sol\":92:129  string public myString =\"Hello World\" */\n    tag_2:\n      callvalue\n      dup1\n      iszero\n      tag_5\n      jumpi\n      0x00\n      dup1\n      revert\n    tag_5:\n      pop\n      tag_6\n      tag_7\n      jump\t// in\n    tag_6:\n      mload(0x40)\n      tag_8\n      swap2\n      swap1\n      tag_9\n      jump\t// in\n    tag_8:\n      mload(0x40)\n      dup1\n      swap2\n      sub\n      swap1\n      return\n        /* \"contracts/SampleContract.sol\":136:156  address public owner */\n    tag_3:\n      callvalue\n      dup1\n      iszero\n      tag_10\n      jumpi\n      0x00\n      dup1\n      revert\n    tag_10:\n      pop\n      tag_11\n      tag_12\n      jump\t// in\n    tag_11:\n      mload(0x40)\n      tag_13\n      swap2\n      swap1\n      tag_14\n      jump\t// in\n    tag_13:\n      mload(0x40)\n      dup1\n      swap2\n      sub\n      swap1\n      return\n        /* \"contracts/SampleContract.sol\":223:440  function updateString(string memory _myString) public payable  {... */\n    tag_4:\n      tag_15\n      0x04\n      dup1\n      calldatasize\n      sub\n      dup2\n      add\n      swap1\n      tag_16\n      swap2\n      swap1\n      tag_17\n      jump\t// in\n    tag_16:\n      tag_18\n      jump\t// in\n    tag_15:\n      stop\n        /* \"contracts/SampleContract.sol\":92:129  string public myString =\"Hello World\" */\n    tag_7:\n      0x00\n      dup1\n      sload\n      tag_19\n      swap1\n      tag_20\n      jump\t// in\n    tag_19:\n      dup1\n      0x1f\n      add\n      0x20\n      dup1\n      swap2\n      div\n      mul\n      0x20\n      add\n      mload(0x40)\n      swap1\n      dup2\n      add\n      0x40\n      mstore\n      dup1\n      swap3\n      swap2\n      swap1\n      dup2\n      dup2\n      mstore\n      0x20\n      add\n      dup3\n      dup1\n      sload\n      tag_21\n      swap1\n      tag_20\n      jump\t// in\n    tag_21:\n      dup1\n      iszero\n      tag_22\n      jumpi\n      dup1\n      0x1f\n      lt\n      tag_23\n      jumpi\n      0x0100\n      dup1\n      dup4\n      sload\n      div\n      mul\n      dup4\n      mstore\n      swap2\n      0x20\n      add\n      swap2\n      jump(tag_22)\n    tag_23:\n      dup3\n      add\n      swap2\n      swap1\n      0x00\n      mstore\n      keccak256(0x00, 0x20)\n      swap1\n    tag_24:\n      dup2\n      sload\n      dup2\n      mstore\n      swap1\n      0x01\n      add\n      swap1\n      0x20\n      add\n      dup1\n      dup4\n      gt\n      tag_24\n      jumpi\n      dup3\n      swap1\n      sub\n      0x1f\n      and\n      dup3\n      add\n      swap2\n    tag_22:\n      pop\n      pop\n      pop\n      pop\n      pop\n      dup2\n      jump\t// out\n        /* \"contracts/SampleContract.sol\":136:156  address public owner */\n    tag_12:\n      0x01\n      0x00\n      swap1\n      sload\n      swap1\n      0x0100\n      exp\n      swap1\n      div\n      0xffffffffffffffffffffffffffffffffffffffff\n      and\n      dup2\n      jump\t// out\n        /* \"contracts/SampleContract.sol\":223:440  function updateString(string memory _myString) public payable  {... */\n    tag_18:\n        /* \"contracts/SampleContract.sol\":314:319  owner */\n      0x01\n      0x00\n      swap1\n      sload\n      swap1\n      0x0100\n      exp\n      swap1\n      div\n      0xffffffffffffffffffffffffffffffffffffffff\n      and\n        /* \"contracts/SampleContract.sol\":300:319  msg.sender == owner */\n      0xffffffffffffffffffffffffffffffffffffffff\n      and\n        /* \"contracts/SampleContract.sol\":300:310  msg.sender */\n      caller\n        /* \"contracts/SampleContract.sol\":300:319  msg.sender == owner */\n      0xffffffffffffffffffffffffffffffffffffffff\n      and\n      sub\n        /* \"contracts/SampleContract.sol\":297:433  if(msg.sender == owner){... */\n      tag_26\n      jumpi\n        /* \"contracts/SampleContract.sol\":346:355  _myString */\n      dup1\n        /* \"contracts/SampleContract.sol\":335:343  myString */\n      0x00\n        /* \"contracts/SampleContract.sol\":335:355  myString = _myString */\n      swap1\n      dup2\n      tag_27\n      swap2\n      swap1\n      tag_28\n      jump\t// in\n    tag_27:\n      pop\n        /* \"contracts/SampleContract.sol\":297:433  if(msg.sender == owner){... */\n      jump(tag_29)\n    tag_26:\n        /* \"contracts/SampleContract.sol\":395:400  owner */\n      0x01\n      0x00\n      swap1\n      sload\n      swap1\n      0x0100\n      exp\n      swap1\n      div\n      0xffffffffffffffffffffffffffffffffffffffff\n      and\n        /* \"contracts/SampleContract.sol\":387:410  payable(owner).transfer */\n      0xffffffffffffffffffffffffffffffffffffffff\n      and\n        /* \"contracts/SampleContract.sol\":387:421  payable(owner).transfer(msg.value) */\n      0x08fc\n        /* \"contracts/SampleContract.sol\":411:420  msg.value */\n      callvalue\n        /* \"contracts/SampleContract.sol\":387:421  payable(owner).transfer(msg.value) */\n      swap1\n      dup2\n      iszero\n      mul\n      swap1\n      mload(0x40)\n      0x00\n      mload(0x40)\n      dup1\n      dup4\n      sub\n      dup2\n      dup6\n      dup9\n      dup9\n      call\n      swap4\n      pop\n      pop\n      pop\n      pop\n      iszero\n      dup1\n      iszero\n      tag_31\n      jumpi\n      returndatasize\n      0x00\n      dup1\n      returndatacopy\n      revert(0x00, returndatasize)\n    tag_31:\n      pop\n        /* \"contracts/SampleContract.sol\":297:433  if(msg.sender == owner){... */\n    tag_29:\n        /* \"contracts/SampleContract.sol\":223:440  function updateString(string memory _myString) public payable  {... */\n      pop\n      jump\t// out\n        /* \"#utility.yul\":7:106   */\n    tag_32:\n        /* \"#utility.yul\":59:65   */\n      0x00\n        /* \"#utility.yul\":93:98   */\n      dup2\n        /* \"#utility.yul\":87:99   */\n      mload\n        /* \"#utility.yul\":77:99   */\n      swap1\n      pop\n        /* \"#utility.yul\":7:106   */\n      swap2\n      swap1\n      pop\n      jump\t// out\n        /* \"#utility.yul\":112:281   */\n    tag_33:\n        /* \"#utility.yul\":196:207   */\n      0x00\n        /* \"#utility.yul\":230:236   */\n      dup3\n        /* \"#utility.yul\":225:228   */\n      dup3\n        /* \"#utility.yul\":218:237   */\n      mstore\n        /* \"#utility.yul\":270:274   */\n      0x20\n        /* \"#utility.yul\":265:268   */\n      dup3\n        /* \"#utility.yul\":261:275   */\n      add\n        /* \"#utility.yul\":246:275   */\n      swap1\n      pop\n        /* \"#utility.yul\":112:281   */\n      swap3\n      swap2\n      pop\n      pop\n      jump\t// out\n        /* \"#utility.yul\":287:594   */\n    tag_34:\n        /* \"#utility.yul\":355:356   */\n      0x00\n        /* \"#utility.yul\":365:478   */\n    tag_73:\n        /* \"#utility.yul\":379:385   */\n      dup4\n        /* \"#utility.yul\":376:377   */\n      dup2\n        /* \"#utility.yul\":373:386   */\n      lt\n        /* \"#utility.yul\":365:478   */\n      iszero\n      tag_75\n      jumpi\n        /* \"#utility.yul\":464:465   */\n      dup1\n        /* \"#utility.yul\":459:462   */\n      dup3\n        /* \"#utility.yul\":455:466   */\n      add\n        /* \"#utility.yul\":449:467   */\n      mload\n        /* \"#utility.yul\":445:446   */\n      dup2\n        /* \"#utility.yul\":440:443   */\n      dup5\n        /* \"#utility.yul\":436:447   */\n      add\n        /* \"#utility.yul\":429:468   */\n      mstore\n        /* \"#utility.yul\":401:403   */\n      0x20\n        /* \"#utility.yul\":398:399   */\n      dup2\n        /* \"#utility.yul\":394:404   */\n      add\n        /* \"#utility.yul\":389:404   */\n      swap1\n      pop\n        /* \"#utility.yul\":365:478   */\n      jump(tag_73)\n    tag_75:\n        /* \"#utility.yul\":496:502   */\n      dup4\n        /* \"#utility.yul\":493:494   */\n      dup2\n        /* \"#utility.yul\":490:503   */\n      gt\n        /* \"#utility.yul\":487:588   */\n      iszero\n      tag_76\n      jumpi\n        /* \"#utility.yul\":576:577   */\n      0x00\n        /* \"#utility.yul\":567:573   */\n      dup5\n        /* \"#utility.yul\":562:565   */\n      dup5\n        /* \"#utility.yul\":558:574   */\n      add\n        /* \"#utility.yul\":551:578   */\n      mstore\n        /* \"#utility.yul\":487:588   */\n    tag_76:\n        /* \"#utility.yul\":336:594   */\n      pop\n        /* \"#utility.yul\":287:594   */\n      pop\n      pop\n      pop\n      jump\t// out\n        /* \"#utility.yul\":600:702   */\n    tag_35:\n        /* \"#utility.yul\":641:647   */\n      0x00\n        /* \"#utility.yul\":692:694   */\n      0x1f\n        /* \"#utility.yul\":688:695   */\n      not\n        /* \"#utility.yul\":683:685   */\n      0x1f\n        /* \"#utility.yul\":676:681   */\n      dup4\n        /* \"#utility.yul\":672:686   */\n      add\n        /* \"#utility.yul\":668:696   */\n      and\n        /* \"#utility.yul\":658:696   */\n      swap1\n      pop\n        /* \"#utility.yul\":600:702   */\n      swap2\n      swap1\n      pop\n      jump\t// out\n        /* \"#utility.yul\":708:1072   */\n    tag_36:\n        /* \"#utility.yul\":796:799   */\n      0x00\n        /* \"#utility.yul\":824:863   */\n      tag_79\n        /* \"#utility.yul\":857:862   */\n      dup3\n        /* \"#utility.yul\":824:863   */\n      tag_32\n      jump\t// in\n    tag_79:\n        /* \"#utility.yul\":879:950   */\n      tag_80\n        /* \"#utility.yul\":943:949   */\n      dup2\n        /* \"#utility.yul\":938:941   */\n      dup6\n        /* \"#utility.yul\":879:950   */\n      tag_33\n      jump\t// in\n    tag_80:\n        /* \"#utility.yul\":872:950   */\n      swap4\n      pop\n        /* \"#utility.yul\":959:1011   */\n      tag_81\n        /* \"#utility.yul\":1004:1010   */\n      dup2\n        /* \"#utility.yul\":999:1002   */\n      dup6\n        /* \"#utility.yul\":992:996   */\n      0x20\n        /* \"#utility.yul\":985:990   */\n      dup7\n        /* \"#utility.yul\":981:997   */\n      add\n        /* \"#utility.yul\":959:1011   */\n      tag_34\n      jump\t// in\n    tag_81:\n        /* \"#utility.yul\":1036:1065   */\n      tag_82\n        /* \"#utility.yul\":1058:1064   */\n      dup2\n        /* \"#utility.yul\":1036:1065   */\n      tag_35\n      jump\t// in\n    tag_82:\n        /* \"#utility.yul\":1031:1034   */\n      dup5\n        /* \"#utility.yul\":1027:1066   */\n      add\n        /* \"#utility.yul\":1020:1066   */\n      swap2\n      pop\n        /* \"#utility.yul\":800:1072   */\n      pop\n        /* \"#utility.yul\":708:1072   */\n      swap3\n      swap2\n      pop\n      pop\n      jump\t// out\n        /* \"#utility.yul\":1078:1391   */\n    tag_9:\n        /* \"#utility.yul\":1191:1195   */\n      0x00\n        /* \"#utility.yul\":1229:1231   */\n      0x20\n        /* \"#utility.yul\":1218:1227   */\n      dup3\n        /* \"#utility.yul\":1214:1232   */\n      add\n        /* \"#utility.yul\":1206:1232   */\n      swap1\n      pop\n        /* \"#utility.yul\":1278:1287   */\n      dup2\n        /* \"#utility.yul\":1272:1276   */\n      dup2\n        /* \"#utility.yul\":1268:1288   */\n      sub\n        /* \"#utility.yul\":1264:1265   */\n      0x00\n        /* \"#utility.yul\":1253:1262   */\n      dup4\n        /* \"#utility.yul\":1249:1266   */\n      add\n        /* \"#utility.yul\":1242:1289   */\n      mstore\n        /* \"#utility.yul\":1306:1384   */\n      tag_84\n        /* \"#utility.yul\":1379:1383   */\n      dup2\n        /* \"#utility.yul\":1370:1376   */\n      dup5\n        /* \"#utility.yul\":1306:1384   */\n      tag_36\n      jump\t// in\n    tag_84:\n        /* \"#utility.yul\":1298:1384   */\n      swap1\n      pop\n        /* \"#utility.yul\":1078:1391   */\n      swap3\n      swap2\n      pop\n      pop\n      jump\t// out\n        /* \"#utility.yul\":1397:1523   */\n    tag_37:\n        /* \"#utility.yul\":1434:1441   */\n      0x00\n        /* \"#utility.yul\":1474:1516   */\n      0xffffffffffffffffffffffffffffffffffffffff\n        /* \"#utility.yul\":1467:1472   */\n      dup3\n        /* \"#utility.yul\":1463:1517   */\n      and\n        /* \"#utility.yul\":1452:1517   */\n      swap1\n      pop\n        /* \"#utility.yul\":1397:1523   */\n      swap2\n      swap1\n      pop\n      jump\t// out\n        /* \"#utility.yul\":1529:1625   */\n    tag_38:\n        /* \"#utility.yul\":1566:1573   */\n      0x00\n        /* \"#utility.yul\":1595:1619   */\n      tag_87\n        /* \"#utility.yul\":1613:1618   */\n      dup3\n        /* \"#utility.yul\":1595:1619   */\n      tag_37\n      jump\t// in\n    tag_87:\n        /* \"#utility.yul\":1584:1619   */\n      swap1\n      pop\n        /* \"#utility.yul\":1529:1625   */\n      swap2\n      swap1\n      pop\n      jump\t// out\n        /* \"#utility.yul\":1631:1749   */\n    tag_39:\n        /* \"#utility.yul\":1718:1742   */\n      tag_89\n        /* \"#utility.yul\":1736:1741   */\n      dup2\n        /* \"#utility.yul\":1718:1742   */\n      tag_38\n      jump\t// in\n    tag_89:\n        /* \"#utility.yul\":1713:1716   */\n      dup3\n        /* \"#utility.yul\":1706:1743   */\n      mstore\n        /* \"#utility.yul\":1631:1749   */\n      pop\n      pop\n      jump\t// out\n        /* \"#utility.yul\":1755:1977   */\n    tag_14:\n        /* \"#utility.yul\":1848:1852   */\n      0x00\n        /* \"#utility.yul\":1886:1888   */\n      0x20\n        /* \"#utility.yul\":1875:1884   */\n      dup3\n        /* \"#utility.yul\":1871:1889   */\n      add\n        /* \"#utility.yul\":1863:1889   */\n      swap1\n      pop\n        /* \"#utility.yul\":1899:1970   */\n      tag_91\n        /* \"#utility.yul\":1967:1968   */\n      0x00\n        /* \"#utility.yul\":1956:1965   */\n      dup4\n        /* \"#utility.yul\":1952:1969   */\n      add\n        /* \"#utility.yul\":1943:1949   */\n      dup5\n        /* \"#utility.yul\":1899:1970   */\n      tag_39\n      jump\t// in\n    tag_91:\n        /* \"#utility.yul\":1755:1977   */\n      swap3\n      swap2\n      pop\n      pop\n      jump\t// out\n        /* \"#utility.yul\":1983:2058   */\n    tag_40:\n        /* \"#utility.yul\":2016:2022   */\n      0x00\n        /* \"#utility.yul\":2049:2051   */\n      0x40\n        /* \"#utility.yul\":2043:2052   */\n      mload\n        /* \"#utility.yul\":2033:2052   */\n      swap1\n      pop\n        /* \"#utility.yul\":1983:2058   */\n      swap1\n      jump\t// out\n        /* \"#utility.yul\":2064:2181   */\n    tag_41:\n        /* \"#utility.yul\":2173:2174   */\n      0x00\n        /* \"#utility.yul\":2170:2171   */\n      dup1\n        /* \"#utility.yul\":2163:2175   */\n      revert\n        /* \"#utility.yul\":2187:2304   */\n    tag_42:\n        /* \"#utility.yul\":2296:2297   */\n      0x00\n        /* \"#utility.yul\":2293:2294   */\n      dup1\n        /* \"#utility.yul\":2286:2298   */\n      revert\n        /* \"#utility.yul\":2310:2427   */\n    tag_43:\n        /* \"#utility.yul\":2419:2420   */\n      0x00\n        /* \"#utility.yul\":2416:2417   */\n      dup1\n        /* \"#utility.yul\":2409:2421   */\n      revert\n        /* \"#utility.yul\":2433:2550   */\n    tag_44:\n        /* \"#utility.yul\":2542:2543   */\n      0x00\n        /* \"#utility.yul\":2539:2540   */\n      dup1\n        /* \"#utility.yul\":2532:2544   */\n      revert\n        /* \"#utility.yul\":2556:2736   */\n    tag_45:\n        /* \"#utility.yul\":2604:2681   */\n      0x4e487b7100000000000000000000000000000000000000000000000000000000\n        /* \"#utility.yul\":2601:2602   */\n      0x00\n        /* \"#utility.yul\":2594:2682   */\n      mstore\n        /* \"#utility.yul\":2701:2705   */\n      0x41\n        /* \"#utility.yul\":2698:2699   */\n      0x04\n        /* \"#utility.yul\":2691:2706   */\n      mstore\n        /* \"#utility.yul\":2725:2729   */\n      0x24\n        /* \"#utility.yul\":2722:2723   */\n      0x00\n        /* \"#utility.yul\":2715:2730   */\n      revert\n        /* \"#utility.yul\":2742:3023   */\n    tag_46:\n        /* \"#utility.yul\":2825:2852   */\n      tag_99\n        /* \"#utility.yul\":2847:2851   */\n      dup3\n        /* \"#utility.yul\":2825:2852   */\n      tag_35\n      jump\t// in\n    tag_99:\n        /* \"#utility.yul\":2817:2823   */\n      dup2\n        /* \"#utility.yul\":2813:2853   */\n      add\n        /* \"#utility.yul\":2955:2961   */\n      dup2\n        /* \"#utility.yul\":2943:2953   */\n      dup2\n        /* \"#utility.yul\":2940:2962   */\n      lt\n        /* \"#utility.yul\":2919:2937   */\n      0xffffffffffffffff\n        /* \"#utility.yul\":2907:2917   */\n      dup3\n        /* \"#utility.yul\":2904:2938   */\n      gt\n        /* \"#utility.yul\":2901:2963   */\n      or\n        /* \"#utility.yul\":2898:2986   */\n      iszero\n      tag_100\n      jumpi\n        /* \"#utility.yul\":2966:2984   */\n      tag_101\n      tag_45\n      jump\t// in\n    tag_101:\n        /* \"#utility.yul\":2898:2986   */\n    tag_100:\n        /* \"#utility.yul\":3006:3016   */\n      dup1\n        /* \"#utility.yul\":3002:3004   */\n      0x40\n        /* \"#utility.yul\":2995:3017   */\n      mstore\n        /* \"#utility.yul\":2785:3023   */\n      pop\n        /* \"#utility.yul\":2742:3023   */\n      pop\n      pop\n      jump\t// out\n        /* \"#utility.yul\":3029:3158   */\n    tag_47:\n        /* \"#utility.yul\":3063:3069   */\n      0x00\n        /* \"#utility.yul\":3090:3110   */\n      tag_103\n      tag_40\n      jump\t// in\n    tag_103:\n        /* \"#utility.yul\":3080:3110   */\n      swap1\n      pop\n        /* \"#utility.yul\":3119:3152   */\n      tag_104\n        /* \"#utility.yul\":3147:3151   */\n      dup3\n        /* \"#utility.yul\":3139:3145   */\n      dup3\n        /* \"#utility.yul\":3119:3152   */\n      tag_46\n      jump\t// in\n    tag_104:\n        /* \"#utility.yul\":3029:3158   */\n      swap2\n      swap1\n      pop\n      jump\t// out\n        /* \"#utility.yul\":3164:3472   */\n    tag_48:\n        /* \"#utility.yul\":3226:3230   */\n      0x00\n        /* \"#utility.yul\":3316:3334   */\n      0xffffffffffffffff\n        /* \"#utility.yul\":3308:3314   */\n      dup3\n        /* \"#utility.yul\":3305:3335   */\n      gt\n        /* \"#utility.yul\":3302:3358   */\n      iszero\n      tag_106\n      jumpi\n        /* \"#utility.yul\":3338:3356   */\n      tag_107\n      tag_45\n      jump\t// in\n    tag_107:\n        /* \"#utility.yul\":3302:3358   */\n    tag_106:\n        /* \"#utility.yul\":3376:3405   */\n      tag_108\n        /* \"#utility.yul\":3398:3404   */\n      dup3\n        /* \"#utility.yul\":3376:3405   */\n      tag_35\n      jump\t// in\n    tag_108:\n        /* \"#utility.yul\":3368:3405   */\n      swap1\n      pop\n        /* \"#utility.yul\":3460:3464   */\n      0x20\n        /* \"#utility.yul\":3454:3458   */\n      dup2\n        /* \"#utility.yul\":3450:3465   */\n      add\n        /* \"#utility.yul\":3442:3465   */\n      swap1\n      pop\n        /* \"#utility.yul\":3164:3472   */\n      swap2\n      swap1\n      pop\n      jump\t// out\n        /* \"#utility.yul\":3478:3632   */\n    tag_49:\n        /* \"#utility.yul\":3562:3568   */\n      dup3\n        /* \"#utility.yul\":3557:3560   */\n      dup2\n        /* \"#utility.yul\":3552:3555   */\n      dup4\n        /* \"#utility.yul\":3539:3569   */\n      calldatacopy\n        /* \"#utility.yul\":3624:3625   */\n      0x00\n        /* \"#utility.yul\":3615:3621   */\n      dup4\n        /* \"#utility.yul\":3610:3613   */\n      dup4\n        /* \"#utility.yul\":3606:3622   */\n      add\n        /* \"#utility.yul\":3599:3626   */\n      mstore\n        /* \"#utility.yul\":3478:3632   */\n      pop\n      pop\n      pop\n      jump\t// out\n        /* \"#utility.yul\":3638:4050   */\n    tag_50:\n        /* \"#utility.yul\":3716:3721   */\n      0x00\n        /* \"#utility.yul\":3741:3807   */\n      tag_111\n        /* \"#utility.yul\":3757:3806   */\n      tag_112\n        /* \"#utility.yul\":3799:3805   */\n      dup5\n        /* \"#utility.yul\":3757:3806   */\n      tag_48\n      jump\t// in\n    tag_112:\n        /* \"#utility.yul\":3741:3807   */\n      tag_47\n      jump\t// in\n    tag_111:\n        /* \"#utility.yul\":3732:3807   */\n      swap1\n      pop\n        /* \"#utility.yul\":3830:3836   */\n      dup3\n        /* \"#utility.yul\":3823:3828   */\n      dup2\n        /* \"#utility.yul\":3816:3837   */\n      mstore\n        /* \"#utility.yul\":3868:3872   */\n      0x20\n        /* \"#utility.yul\":3861:3866   */\n      dup2\n        /* \"#utility.yul\":3857:3873   */\n      add\n        /* \"#utility.yul\":3906:3909   */\n      dup5\n        /* \"#utility.yul\":3897:3903   */\n      dup5\n        /* \"#utility.yul\":3892:3895   */\n      dup5\n        /* \"#utility.yul\":3888:3904   */\n      add\n        /* \"#utility.yul\":3885:3910   */\n      gt\n        /* \"#utility.yul\":3882:3994   */\n      iszero\n      tag_113\n      jumpi\n        /* \"#utility.yul\":3913:3992   */\n      tag_114\n      tag_44\n      jump\t// in\n    tag_114:\n        /* \"#utility.yul\":3882:3994   */\n    tag_113:\n        /* \"#utility.yul\":4003:4044   */\n      tag_115\n        /* \"#utility.yul\":4037:4043   */\n      dup5\n        /* \"#utility.yul\":4032:4035   */\n      dup3\n        /* \"#utility.yul\":4027:4030   */\n      dup6\n        /* \"#utility.yul\":4003:4044   */\n      tag_49\n      jump\t// in\n    tag_115:\n        /* \"#utility.yul\":3722:4050   */\n      pop\n        /* \"#utility.yul\":3638:4050   */\n      swap4\n      swap3\n      pop\n      pop\n      pop\n      jump\t// out\n        /* \"#utility.yul\":4070:4410   */\n    tag_51:\n        /* \"#utility.yul\":4126:4131   */\n      0x00\n        /* \"#utility.yul\":4175:4178   */\n      dup3\n        /* \"#utility.yul\":4168:4172   */\n      0x1f\n        /* \"#utility.yul\":4160:4166   */\n      dup4\n        /* \"#utility.yul\":4156:4173   */\n      add\n        /* \"#utility.yul\":4152:4179   */\n      slt\n        /* \"#utility.yul\":4142:4264   */\n      tag_117\n      jumpi\n        /* \"#utility.yul\":4183:4262   */\n      tag_118\n      tag_43\n      jump\t// in\n    tag_118:\n        /* \"#utility.yul\":4142:4264   */\n    tag_117:\n        /* \"#utility.yul\":4300:4306   */\n      dup2\n        /* \"#utility.yul\":4287:4307   */\n      calldataload\n        /* \"#utility.yul\":4325:4404   */\n      tag_119\n        /* \"#utility.yul\":4400:4403   */\n      dup5\n        /* \"#utility.yul\":4392:4398   */\n      dup3\n        /* \"#utility.yul\":4385:4389   */\n      0x20\n        /* \"#utility.yul\":4377:4383   */\n      dup7\n        /* \"#utility.yul\":4373:4390   */\n      add\n        /* \"#utility.yul\":4325:4404   */\n      tag_50\n      jump\t// in\n    tag_119:\n        /* \"#utility.yul\":4316:4404   */\n      swap2\n      pop\n        /* \"#utility.yul\":4132:4410   */\n      pop\n        /* \"#utility.yul\":4070:4410   */\n      swap3\n      swap2\n      pop\n      pop\n      jump\t// out\n        /* \"#utility.yul\":4416:4925   */\n    tag_17:\n        /* \"#utility.yul\":4485:4491   */\n      0x00\n        /* \"#utility.yul\":4534:4536   */\n      0x20\n        /* \"#utility.yul\":4522:4531   */\n      dup3\n        /* \"#utility.yul\":4513:4520   */\n      dup5\n        /* \"#utility.yul\":4509:4532   */\n      sub\n        /* \"#utility.yul\":4505:4537   */\n      slt\n        /* \"#utility.yul\":4502:4621   */\n      iszero\n      tag_121\n      jumpi\n        /* \"#utility.yul\":4540:4619   */\n      tag_122\n      tag_41\n      jump\t// in\n    tag_122:\n        /* \"#utility.yul\":4502:4621   */\n    tag_121:\n        /* \"#utility.yul\":4688:4689   */\n      0x00\n        /* \"#utility.yul\":4677:4686   */\n      dup3\n        /* \"#utility.yul\":4673:4690   */\n      add\n        /* \"#utility.yul\":4660:4691   */\n      calldataload\n        /* \"#utility.yul\":4718:4736   */\n      0xffffffffffffffff\n        /* \"#utility.yul\":4710:4716   */\n      dup2\n        /* \"#utility.yul\":4707:4737   */\n      gt\n        /* \"#utility.yul\":4704:4821   */\n      iszero\n      tag_123\n      jumpi\n        /* \"#utility.yul\":4740:4819   */\n      tag_124\n      tag_42\n      jump\t// in\n    tag_124:\n        /* \"#utility.yul\":4704:4821   */\n    tag_123:\n        /* \"#utility.yul\":4845:4908   */\n      tag_125\n        /* \"#utility.yul\":4900:4907   */\n      dup5\n        /* \"#utility.yul\":4891:4897   */\n      dup3\n        /* \"#utility.yul\":4880:4889   */\n      dup6\n        /* \"#utility.yul\":4876:4898   */\n      add\n        /* \"#utility.yul\":4845:4908   */\n      tag_51\n      jump\t// in\n    tag_125:\n        /* \"#utility.yul\":4835:4908   */\n      swap2\n      pop\n        /* \"#utility.yul\":4631:4918   */\n      pop\n        /* \"#utility.yul\":4416:4925   */\n      swap3\n      swap2\n      pop\n      pop\n      jump\t// out\n        /* \"#utility.yul\":4931:5111   */\n    tag_52:\n        /* \"#utility.yul\":4979:5056   */\n      0x4e487b7100000000000000000000000000000000000000000000000000000000\n        /* \"#utility.yul\":4976:4977   */\n      0x00\n        /* \"#utility.yul\":4969:5057   */\n      mstore\n        /* \"#utility.yul\":5076:5080   */\n      0x22\n        /* \"#utility.yul\":5073:5074   */\n      0x04\n        /* \"#utility.yul\":5066:5081   */\n      mstore\n        /* \"#utility.yul\":5100:5104   */\n      0x24\n        /* \"#utility.yul\":5097:5098   */\n      0x00\n        /* \"#utility.yul\":5090:5105   */\n      revert\n        /* \"#utility.yul\":5117:5437   */\n    tag_20:\n        /* \"#utility.yul\":5161:5167   */\n      0x00\n        /* \"#utility.yul\":5198:5199   */\n      0x02\n        /* \"#utility.yul\":5192:5196   */\n      dup3\n        /* \"#utility.yul\":5188:5200   */\n      div\n        /* \"#utility.yul\":5178:5200   */\n      swap1\n      pop\n        /* \"#utility.yul\":5245:5246   */\n      0x01\n        /* \"#utility.yul\":5239:5243   */\n      dup3\n        /* \"#utility.yul\":5235:5247   */\n      and\n        /* \"#utility.yul\":5266:5284   */\n      dup1\n        /* \"#utility.yul\":5256:5337   */\n      tag_128\n      jumpi\n        /* \"#utility.yul\":5322:5326   */\n      0x7f\n        /* \"#utility.yul\":5314:5320   */\n      dup3\n        /* \"#utility.yul\":5310:5327   */\n      and\n        /* \"#utility.yul\":5300:5327   */\n      swap2\n      pop\n        /* \"#utility.yul\":5256:5337   */\n    tag_128:\n        /* \"#utility.yul\":5384:5386   */\n      0x20\n        /* \"#utility.yul\":5376:5382   */\n      dup3\n        /* \"#utility.yul\":5373:5387   */\n      lt\n        /* \"#utility.yul\":5353:5371   */\n      dup2\n        /* \"#utility.yul\":5350:5388   */\n      sub\n        /* \"#utility.yul\":5347:5431   */\n      tag_129\n      jumpi\n        /* \"#utility.yul\":5403:5421   */\n      tag_130\n      tag_52\n      jump\t// in\n    tag_130:\n        /* \"#utility.yul\":5347:5431   */\n    tag_129:\n        /* \"#utility.yul\":5168:5437   */\n      pop\n        /* \"#utility.yul\":5117:5437   */\n      swap2\n      swap1\n      pop\n      jump\t// out\n        /* \"#utility.yul\":5443:5584   */\n    tag_53:\n        /* \"#utility.yul\":5492:5496   */\n      0x00\n        /* \"#utility.yul\":5515:5518   */\n      dup2\n        /* \"#utility.yul\":5507:5518   */\n      swap1\n      pop\n        /* \"#utility.yul\":5538:5541   */\n      dup2\n        /* \"#utility.yul\":5535:5536   */\n      0x00\n        /* \"#utility.yul\":5528:5542   */\n      mstore\n        /* \"#utility.yul\":5572:5576   */\n      0x20\n        /* \"#utility.yul\":5569:5570   */\n      0x00\n        /* \"#utility.yul\":5559:5577   */\n      keccak256\n        /* \"#utility.yul\":5551:5577   */\n      swap1\n      pop\n        /* \"#utility.yul\":5443:5584   */\n      swap2\n      swap1\n      pop\n      jump\t// out\n        /* \"#utility.yul\":5590:5683   */\n    tag_54:\n        /* \"#utility.yul\":5627:5633   */\n      0x00\n        /* \"#utility.yul\":5674:5676   */\n      0x20\n        /* \"#utility.yul\":5669:5671   */\n      0x1f\n        /* \"#utility.yul\":5662:5667   */\n      dup4\n        /* \"#utility.yul\":5658:5672   */\n      add\n        /* \"#utility.yul\":5654:5677   */\n      div\n        /* \"#utility.yul\":5644:5677   */\n      swap1\n      pop\n        /* \"#utility.yul\":5590:5683   */\n      swap2\n      swap1\n      pop\n      jump\t// out\n        /* \"#utility.yul\":5689:5796   */\n    tag_55:\n        /* \"#utility.yul\":5733:5741   */\n      0x00\n        /* \"#utility.yul\":5783:5788   */\n      dup3\n        /* \"#utility.yul\":5777:5781   */\n      dup3\n        /* \"#utility.yul\":5773:5789   */\n      shl\n        /* \"#utility.yul\":5752:5789   */\n      swap1\n      pop\n        /* \"#utility.yul\":5689:5796   */\n      swap3\n      swap2\n      pop\n      pop\n      jump\t// out\n        /* \"#utility.yul\":5802:6195   */\n    tag_56:\n        /* \"#utility.yul\":5871:5877   */\n      0x00\n        /* \"#utility.yul\":5921:5922   */\n      0x08\n        /* \"#utility.yul\":5909:5919   */\n      dup4\n        /* \"#utility.yul\":5905:5923   */\n      mul\n        /* \"#utility.yul\":5944:6041   */\n      tag_135\n        /* \"#utility.yul\":5974:6040   */\n      0xffffffffffffffffffffffffffffffffffffffffffffffffffffffffffffffff\n        /* \"#utility.yul\":5963:5972   */\n      dup3\n        /* \"#utility.yul\":5944:6041   */\n      tag_55\n      jump\t// in\n    tag_135:\n        /* \"#utility.yul\":6062:6101   */\n      tag_136\n        /* \"#utility.yul\":6092:6100   */\n      dup7\n        /* \"#utility.yul\":6081:6090   */\n      dup4\n        /* \"#utility.yul\":6062:6101   */\n      tag_55\n      jump\t// in\n    tag_136:\n        /* \"#utility.yul\":6050:6101   */\n      swap6\n      pop\n        /* \"#utility.yul\":6134:6138   */\n      dup1\n        /* \"#utility.yul\":6130:6139   */\n      not\n        /* \"#utility.yul\":6123:6128   */\n      dup5\n        /* \"#utility.yul\":6119:6140   */\n      and\n        /* \"#utility.yul\":6110:6140   */\n      swap4\n      pop\n        /* \"#utility.yul\":6183:6187   */\n      dup1\n        /* \"#utility.yul\":6173:6181   */\n      dup7\n        /* \"#utility.yul\":6169:6188   */\n      and\n        /* \"#utility.yul\":6162:6167   */\n      dup5\n        /* \"#utility.yul\":6159:6189   */\n      or\n        /* \"#utility.yul\":6149:6189   */\n      swap3\n      pop\n        /* \"#utility.yul\":5878:6195   */\n      pop\n      pop\n        /* \"#utility.yul\":5802:6195   */\n      swap4\n      swap3\n      pop\n      pop\n      pop\n      jump\t// out\n        /* \"#utility.yul\":6201:6278   */\n    tag_57:\n        /* \"#utility.yul\":6238:6245   */\n      0x00\n        /* \"#utility.yul\":6267:6272   */\n      dup2\n        /* \"#utility.yul\":6256:6272   */\n      swap1\n      pop\n        /* \"#utility.yul\":6201:6278   */\n      swap2\n      swap1\n      pop\n      jump\t// out\n        /* \"#utility.yul\":6284:6344   */\n    tag_58:\n        /* \"#utility.yul\":6312:6315   */\n      0x00\n        /* \"#utility.yul\":6333:6338   */\n      dup2\n        /* \"#utility.yul\":6326:6338   */\n      swap1\n      pop\n        /* \"#utility.yul\":6284:6344   */\n      swap2\n      swap1\n      pop\n      jump\t// out\n        /* \"#utility.yul\":6350:6492   */\n    tag_59:\n        /* \"#utility.yul\":6400:6409   */\n      0x00\n        /* \"#utility.yul\":6433:6486   */\n      tag_140\n        /* \"#utility.yul\":6451:6485   */\n      tag_141\n        /* \"#utility.yul\":6460:6484   */\n      tag_142\n        /* \"#utility.yul\":6478:6483   */\n      dup5\n        /* \"#utility.yul\":6460:6484   */\n      tag_57\n      jump\t// in\n    tag_142:\n        /* \"#utility.yul\":6451:6485   */\n      tag_58\n      jump\t// in\n    tag_141:\n        /* \"#utility.yul\":6433:6486   */\n      tag_57\n      jump\t// in\n    tag_140:\n        /* \"#utility.yul\":6420:6486   */\n      swap1\n      pop\n        /* \"#utility.yul\":6350:6492   */\n      swap2\n      swap1\n      pop\n      jump\t// out\n        /* \"#utility.yul\":6498:6573   */\n    tag_60:\n        /* \"#utility.yul\":6541:6544   */\n      0x00\n        /* \"#utility.yul\":6562:6567   */\n      dup2\n        /* \"#utility.yul\":6555:6567   */\n      swap1\n      pop\n        /* \"#utility.yul\":6498:6573   */\n      swap2\n      swap1\n      pop\n      jump\t// out\n        /* \"#utility.yul\":6579:6848   */\n    tag_61:\n        /* \"#utility.yul\":6689:6728   */\n      tag_145\n        /* \"#utility.yul\":6720:6727   */\n      dup4\n        /* \"#utility.yul\":6689:6728   */\n      tag_59\n      jump\t// in\n    tag_145:\n        /* \"#utility.yul\":6750:6841   */\n      tag_146\n        /* \"#utility.yul\":6799:6840   */\n      tag_147\n        /* \"#utility.yul\":6823:6839   */\n      dup3\n        /* \"#utility.yul\":6799:6840   */\n      tag_60\n      jump\t// in\n    tag_147:\n        /* \"#utility.yul\":6791:6797   */\n      dup5\n        /* \"#utility.yul\":6784:6788   */\n      dup5\n        /* \"#utility.yul\":6778:6789   */\n      sload\n        /* \"#utility.yul\":6750:6841   */\n      tag_56\n      jump\t// in\n    tag_146:\n        /* \"#utility.yul\":6744:6748   */\n      dup3\n        /* \"#utility.yul\":6737:6842   */\n      sstore\n        /* \"#utility.yul\":6655:6848   */\n      pop\n        /* \"#utility.yul\":6579:6848   */\n      pop\n      pop\n      pop\n      jump\t// out\n        /* \"#utility.yul\":6854:6927   */\n    tag_62:\n        /* \"#utility.yul\":6899:6902   */\n      0x00\n        /* \"#utility.yul\":6854:6927   */\n      swap1\n      jump\t// out\n        /* \"#utility.yul\":6933:7122   */\n    tag_63:\n        /* \"#utility.yul\":7010:7042   */\n      tag_150\n      tag_62\n      jump\t// in\n    tag_150:\n        /* \"#utility.yul\":7051:7116   */\n      tag_151\n        /* \"#utility.yul\":7109:7115   */\n      dup2\n        /* \"#utility.yul\":7101:7107   */\n      dup5\n        /* \"#utility.yul\":7095:7099   */\n      dup5\n        /* \"#utility.yul\":7051:7116   */\n      tag_61\n      jump\t// in\n    tag_151:\n        /* \"#utility.yul\":6986:7122   */\n      pop\n        /* \"#utility.yul\":6933:7122   */\n      pop\n      pop\n      jump\t// out\n        /* \"#utility.yul\":7128:7314   */\n    tag_64:\n        /* \"#utility.yul\":7188:7308   */\n    tag_153:\n        /* \"#utility.yul\":7205:7208   */\n      dup2\n        /* \"#utility.yul\":7198:7203   */\n      dup2\n        /* \"#utility.yul\":7195:7209   */\n      lt\n        /* \"#utility.yul\":7188:7308   */\n      iszero\n      tag_155\n      jumpi\n        /* \"#utility.yul\":7259:7298   */\n      tag_156\n        /* \"#utility.yul\":7296:7297   */\n      0x00\n        /* \"#utility.yul\":7289:7294   */\n      dup3\n        /* \"#utility.yul\":7259:7298   */\n      tag_63\n      jump\t// in\n    tag_156:\n        /* \"#utility.yul\":7232:7233   */\n      0x01\n        /* \"#utility.yul\":7225:7230   */\n      dup2\n        /* \"#utility.yul\":7221:7234   */\n      add\n        /* \"#utility.yul\":7212:7234   */\n      swap1\n      pop\n        /* \"#utility.yul\":7188:7308   */\n      jump(tag_153)\n    tag_155:\n        /* \"#utility.yul\":7128:7314   */\n      pop\n      pop\n      jump\t// out\n        /* \"#utility.yul\":7320:7863   */\n    tag_65:\n        /* \"#utility.yul\":7421:7423   */\n      0x1f\n        /* \"#utility.yul\":7416:7419   */\n      dup3\n        /* \"#utility.yul\":7413:7424   */\n      gt\n        /* \"#utility.yul\":7410:7856   */\n      iszero\n      tag_158\n      jumpi\n        /* \"#utility.yul\":7455:7493   */\n      tag_159\n        /* \"#utility.yul\":7487:7492   */\n      dup2\n        /* \"#utility.yul\":7455:7493   */\n      tag_53\n      jump\t// in\n    tag_159:\n        /* \"#utility.yul\":7539:7568   */\n      tag_160\n        /* \"#utility.yul\":7557:7567   */\n      dup5\n        /* \"#utility.yul\":7539:7568   */\n      tag_54\n      jump\t// in\n    tag_160:\n        /* \"#utility.yul\":7529:7537   */\n      dup2\n        /* \"#utility.yul\":7525:7569   */\n      add\n        /* \"#utility.yul\":7722:7724   */\n      0x20\n        /* \"#utility.yul\":7710:7720   */\n      dup6\n        /* \"#utility.yul\":7707:7725   */\n      lt\n        /* \"#utility.yul\":7704:7753   */\n      iszero\n      tag_161\n      jumpi\n        /* \"#utility.yul\":7743:7751   */\n      dup2\n        /* \"#utility.yul\":7728:7751   */\n      swap1\n      pop\n        /* \"#utility.yul\":7704:7753   */\n    tag_161:\n        /* \"#utility.yul\":7766:7846   */\n      tag_162\n        /* \"#utility.yul\":7822:7844   */\n      tag_163\n        /* \"#utility.yul\":7840:7843   */\n      dup6\n        /* \"#utility.yul\":7822:7844   */\n      tag_54\n      jump\t// in\n    tag_163:\n        /* \"#utility.yul\":7812:7820   */\n      dup4\n        /* \"#utility.yul\":7808:7845   */\n      add\n        /* \"#utility.yul\":7795:7806   */\n      dup3\n        /* \"#utility.yul\":7766:7846   */\n      tag_64\n      jump\t// in\n    tag_162:\n        /* \"#utility.yul\":7425:7856   */\n      pop\n      pop\n        /* \"#utility.yul\":7410:7856   */\n    tag_158:\n        /* \"#utility.yul\":7320:7863   */\n      pop\n      pop\n      pop\n      jump\t// out\n        /* \"#utility.yul\":7869:7986   */\n    tag_66:\n        /* \"#utility.yul\":7923:7931   */\n      0x00\n        /* \"#utility.yul\":7973:7978   */\n      dup3\n        /* \"#utility.yul\":7967:7971   */\n      dup3\n        /* \"#utility.yul\":7963:7979   */\n      shr\n        /* \"#utility.yul\":7942:7979   */\n      swap1\n      pop\n        /* \"#utility.yul\":7869:7986   */\n      swap3\n      swap2\n      pop\n      pop\n      jump\t// out\n        /* \"#utility.yul\":7992:8161   */\n    tag_67:\n        /* \"#utility.yul\":8036:8042   */\n      0x00\n        /* \"#utility.yul\":8069:8120   */\n      tag_166\n        /* \"#utility.yul\":8117:8118   */\n      0x00\n        /* \"#utility.yul\":8113:8119   */\n      not\n        /* \"#utility.yul\":8105:8110   */\n      dup5\n        /* \"#utility.yul\":8102:8103   */\n      0x08\n        /* \"#utility.yul\":8098:8111   */\n      mul\n        /* \"#utility.yul\":8069:8120   */\n      tag_66\n      jump\t// in\n    tag_166:\n        /* \"#utility.yul\":8065:8121   */\n      not\n        /* \"#utility.yul\":8150:8154   */\n      dup1\n        /* \"#utility.yul\":8144:8148   */\n      dup4\n        /* \"#utility.yul\":8140:8155   */\n      and\n        /* \"#utility.yul\":8130:8155   */\n      swap2\n      pop\n        /* \"#utility.yul\":8043:8161   */\n      pop\n        /* \"#utility.yul\":7992:8161   */\n      swap3\n      swap2\n      pop\n      pop\n      jump\t// out\n        /* \"#utility.yul\":8166:8461   */\n    tag_68:\n        /* \"#utility.yul\":8242:8246   */\n      0x00\n        /* \"#utility.yul\":8388:8417   */\n      tag_168\n        /* \"#utility.yul\":8413:8416   */\n      dup4\n        /* \"#utility.yul\":8407:8411   */\n      dup4\n        /* \"#utility.yul\":8388:8417   */\n      tag_67\n      jump\t// in\n    tag_168:\n        /* \"#utility.yul\":8380:8417   */\n      swap2\n      pop\n        /* \"#utility.yul\":8450:8453   */\n      dup3\n        /* \"#utility.yul\":8447:8448   */\n      0x02\n        /* \"#utility.yul\":8443:8454   */\n      mul\n        /* \"#utility.yul\":8437:8441   */\n      dup3\n        /* \"#utility.yul\":8434:8455   */\n      or\n        /* \"#utility.yul\":8426:8455   */\n      swap1\n      pop\n        /* \"#utility.yul\":8166:8461   */\n      swap3\n      swap2\n      pop\n      pop\n      jump\t// out\n        /* \"#utility.yul\":8466:9861   */\n    tag_28:\n        /* \"#utility.yul\":8583:8620   */\n      tag_170\n        /* \"#utility.yul\":8616:8619   */\n      dup3\n        /* \"#utility.yul\":8583:8620   */\n      tag_32\n      jump\t// in\n    tag_170:\n        /* \"#utility.yul\":8685:8703   */\n      0xffffffffffffffff\n        /* \"#utility.yul\":8677:8683   */\n      dup2\n        /* \"#utility.yul\":8674:8704   */\n      gt\n        /* \"#utility.yul\":8671:8727   */\n      iszero\n      tag_171\n      jumpi\n        /* \"#utility.yul\":8707:8725   */\n      tag_172\n      tag_45\n      jump\t// in\n    tag_172:\n        /* \"#utility.yul\":8671:8727   */\n    tag_171:\n        /* \"#utility.yul\":8751:8789   */\n      tag_173\n        /* \"#utility.yul\":8783:8787   */\n      dup3\n        /* \"#utility.yul\":8777:8788   */\n      sload\n        /* \"#utility.yul\":8751:8789   */\n      tag_20\n      jump\t// in\n    tag_173:\n        /* \"#utility.yul\":8836:8903   */\n      tag_174\n        /* \"#utility.yul\":8896:8902   */\n      dup3\n        /* \"#utility.yul\":8888:8894   */\n      dup3\n        /* \"#utility.yul\":8882:8886   */\n      dup6\n        /* \"#utility.yul\":8836:8903   */\n      tag_65\n      jump\t// in\n    tag_174:\n        /* \"#utility.yul\":8930:8931   */\n      0x00\n        /* \"#utility.yul\":8954:8958   */\n      0x20\n        /* \"#utility.yul\":8941:8958   */\n      swap1\n      pop\n        /* \"#utility.yul\":8986:8988   */\n      0x1f\n        /* \"#utility.yul\":8978:8984   */\n      dup4\n        /* \"#utility.yul\":8975:8989   */\n      gt\n        /* \"#utility.yul\":9003:9004   */\n      0x01\n        /* \"#utility.yul\":8998:9616   */\n      dup2\n      eq\n      tag_176\n      jumpi\n        /* \"#utility.yul\":9660:9661   */\n      0x00\n        /* \"#utility.yul\":9677:9683   */\n      dup5\n        /* \"#utility.yul\":9674:9751   */\n      iszero\n      tag_177\n      jumpi\n        /* \"#utility.yul\":9726:9735   */\n      dup3\n        /* \"#utility.yul\":9721:9724   */\n      dup8\n        /* \"#utility.yul\":9717:9736   */\n      add\n        /* \"#utility.yul\":9711:9737   */\n      mload\n        /* \"#utility.yul\":9702:9737   */\n      swap1\n      pop\n        /* \"#utility.yul\":9674:9751   */\n    tag_177:\n        /* \"#utility.yul\":9777:9844   */\n      tag_178\n        /* \"#utility.yul\":9837:9843   */\n      dup6\n        /* \"#utility.yul\":9830:9835   */\n      dup3\n        /* \"#utility.yul\":9777:9844   */\n      tag_68\n      jump\t// in\n    tag_178:\n        /* \"#utility.yul\":9771:9775   */\n      dup7\n        /* \"#utility.yul\":9764:9845   */\n      sstore\n        /* \"#utility.yul\":9633:9855   */\n      pop\n        /* \"#utility.yul\":8968:9855   */\n      jump(tag_175)\n        /* \"#utility.yul\":8998:9616   */\n    tag_176:\n        /* \"#utility.yul\":9050:9054   */\n      0x1f\n        /* \"#utility.yul\":9046:9055   */\n      not\n        /* \"#utility.yul\":9038:9044   */\n      dup5\n        /* \"#utility.yul\":9034:9056   */\n      and\n        /* \"#utility.yul\":9084:9121   */\n      tag_179\n        /* \"#utility.yul\":9116:9120   */\n      dup7\n        /* \"#utility.yul\":9084:9121   */\n      tag_53\n      jump\t// in\n    tag_179:\n        /* \"#utility.yul\":9143:9144   */\n      0x00\n        /* \"#utility.yul\":9157:9365   */\n    tag_180:\n        /* \"#utility.yul\":9171:9178   */\n      dup3\n        /* \"#utility.yul\":9168:9169   */\n      dup2\n        /* \"#utility.yul\":9165:9179   */\n      lt\n        /* \"#utility.yul\":9157:9365   */\n      iszero\n      tag_182\n      jumpi\n        /* \"#utility.yul\":9250:9259   */\n      dup5\n        /* \"#utility.yul\":9245:9248   */\n      dup10\n        /* \"#utility.yul\":9241:9260   */\n      add\n        /* \"#utility.yul\":9235:9261   */\n      mload\n        /* \"#utility.yul\":9227:9233   */\n      dup3\n        /* \"#utility.yul\":9220:9262   */\n      sstore\n        /* \"#utility.yul\":9301:9302   */\n      0x01\n        /* \"#utility.yul\":9293:9299   */\n      dup3\n        /* \"#utility.yul\":9289:9303   */\n      add\n        /* \"#utility.yul\":9279:9303   */\n      swap2\n      pop\n        /* \"#utility.yul\":9348:9350   */\n      0x20\n        /* \"#utility.yul\":9337:9346   */\n      dup6\n        /* \"#utility.yul\":9333:9351   */\n      add\n        /* \"#utility.yul\":9320:9351   */\n      swap5\n      pop\n        /* \"#utility.yul\":9194:9198   */\n      0x20\n        /* \"#utility.yul\":9191:9192   */\n      dup2\n        /* \"#utility.yul\":9187:9199   */\n      add\n        /* \"#utility.yul\":9182:9199   */\n      swap1\n      pop\n        /* \"#utility.yul\":9157:9365   */\n      jump(tag_180)\n    tag_182:\n        /* \"#utility.yul\":9393:9399   */\n      dup7\n        /* \"#utility.yul\":9384:9391   */\n      dup4\n        /* \"#utility.yul\":9381:9400   */\n      lt\n        /* \"#utility.yul\":9378:9557   */\n      iszero\n      tag_183\n      jumpi\n        /* \"#utility.yul\":9451:9460   */\n      dup5\n        /* \"#utility.yul\":9446:9449   */\n      dup10\n        /* \"#utility.yul\":9442:9461   */\n      add\n        /* \"#utility.yul\":9436:9462   */\n      mload\n        /* \"#utility.yul\":9494:9542   */\n      tag_184\n        /* \"#utility.yul\":9536:9540   */\n      0x1f\n        /* \"#utility.yul\":9528:9534   */\n      dup10\n        /* \"#utility.yul\":9524:9541   */\n      and\n        /* \"#utility.yul\":9513:9522   */\n      dup3\n        /* \"#utility.yul\":9494:9542   */\n      tag_67\n      jump\t// in\n    tag_184:\n        /* \"#utility.yul\":9486:9492   */\n      dup4\n        /* \"#utility.yul\":9479:9543   */\n      sstore\n        /* \"#utility.yul\":9401:9557   */\n      pop\n        /* \"#utility.yul\":9378:9557   */\n    tag_183:\n        /* \"#utility.yul\":9603:9604   */\n      0x01\n        /* \"#utility.yul\":9599:9600   */\n      0x02\n        /* \"#utility.yul\":9591:9597   */\n      dup9\n        /* \"#utility.yul\":9587:9601   */\n      mul\n        /* \"#utility.yul\":9583:9605   */\n      add\n        /* \"#utility.yul\":9577:9581   */\n      dup9\n        /* \"#utility.yul\":9570:9606   */\n      sstore\n        /* \"#utility.yul\":9005:9616   */\n      pop\n      pop\n      pop\n        /* \"#utility.yul\":8968:9855   */\n    tag_175:\n      pop\n        /* \"#utility.yul\":8558:9861   */\n      pop\n      pop\n      pop\n        /* \"#utility.yul\":8466:9861   */\n      pop\n      pop\n      jump\t// out\n\n    auxdata: 0xa2646970667358221220e797f80a9fd5b986a2df195b021adaadb07f7074c70441e29d9a6976f610fbf464736f6c634300080f0033\n}\n",
				"bytecode": {
					"linkReferences": {},
					"object": "60806040526040518060400160405280600b81526020017f48656c6c6f20576f726c64000000000000000000000000000000000000000000815250600090816200004a91906200031a565b503480156200005857600080fd5b5033600160006101000a81548173ffffffffffffffffffffffffffffffffffffffff021916908373ffffffffffffffffffffffffffffffffffffffff16021790555062000401565b600081519050919050565b7f4e487b7100000000000000000000000000000000000000000000000000000000600052604160045260246000fd5b7f4e487b7100000000000000000000000000000000000000000000000000000000600052602260045260246000fd5b600060028204905060018216806200012257607f821691505b602082108103620001385762000137620000da565b5b50919050565b60008190508160005260206000209050919050565b60006020601f8301049050919050565b600082821b905092915050565b600060088302620001a27fffffffffffffffffffffffffffffffffffffffffffffffffffffffffffffffff8262000163565b620001ae868362000163565b95508019841693508086168417925050509392505050565b6000819050919050565b6000819050919050565b6000620001fb620001f5620001ef84620001c6565b620001d0565b620001c6565b9050919050565b6000819050919050565b6200021783620001da565b6200022f620002268262000202565b84845462000170565b825550505050565b600090565b6200024662000237565b620002538184846200020c565b505050565b5b818110156200027b576200026f6000826200023c565b60018101905062000259565b5050565b601f821115620002ca5762000294816200013e565b6200029f8462000153565b81016020851015620002af578190505b620002c7620002be8562000153565b83018262000258565b50505b505050565b600082821c905092915050565b6000620002ef60001984600802620002cf565b1980831691505092915050565b60006200030a8383620002dc565b9150826002028217905092915050565b6200032582620000a0565b67ffffffffffffffff811115620003415762000340620000ab565b5b6200034d825462000109565b6200035a8282856200027f565b600060209050601f8311600181146200039257600084156200037d578287015190505b620003898582620002fc565b865550620003f9565b601f198416620003a2866200013e565b60005b82811015620003cc57848901518255600182019150602085019450602081019050620003a5565b86831015620003ec5784890151620003e8601f891682620002dc565b8355505b6001600288020188555050505b505050505050565b6107fd80620004116000396000f3fe6080604052600436106100345760003560e01c8063492bfa18146100395780638da5cb5b14610064578063c3ccf4021461008f575b600080fd5b34801561004557600080fd5b5061004e6100ab565b60405161005b91906102cf565b60405180910390f35b34801561007057600080fd5b50610079610139565b6040516100869190610332565b60405180910390f35b6100a960048036038101906100a49190610496565b61015f565b005b600080546100b89061050e565b80601f01602080910402602001604051908101604052809291908181526020018280546100e49061050e565b80156101315780601f1061010657610100808354040283529160200191610131565b820191906000526020600020905b81548152906001019060200180831161011457829003601f168201915b505050505081565b600160009054906101000a900473ffffffffffffffffffffffffffffffffffffffff1681565b600160009054906101000a900473ffffffffffffffffffffffffffffffffffffffff1673ffffffffffffffffffffffffffffffffffffffff163373ffffffffffffffffffffffffffffffffffffffff16036101c95780600090816101c391906106f5565b50610233565b600160009054906101000a900473ffffffffffffffffffffffffffffffffffffffff1673ffffffffffffffffffffffffffffffffffffffff166108fc349081150290604051600060405180830381858888f19350505050158015610231573d6000803e3d6000fd5b505b50565b600081519050919050565b600082825260208201905092915050565b60005b83811015610270578082015181840152602081019050610255565b8381111561027f576000848401525b50505050565b6000601f19601f8301169050919050565b60006102a182610236565b6102ab8185610241565b93506102bb818560208601610252565b6102c481610285565b840191505092915050565b600060208201905081810360008301526102e98184610296565b905092915050565b600073ffffffffffffffffffffffffffffffffffffffff82169050919050565b600061031c826102f1565b9050919050565b61032c81610311565b82525050565b60006020820190506103476000830184610323565b92915050565b6000604051905090565b600080fd5b600080fd5b600080fd5b600080fd5b7f4e487b7100000000000000000000000000000000000000000000000000000000600052604160045260246000fd5b6103a382610285565b810181811067ffffffffffffffff821117156103c2576103c161036b565b5b80604052505050565b60006103d561034d565b90506103e1828261039a565b919050565b600067ffffffffffffffff8211156104015761040061036b565b5b61040a82610285565b9050602081019050919050565b82818337600083830152505050565b6000610439610434846103e6565b6103cb565b90508281526020810184848401111561045557610454610366565b5b610460848285610417565b509392505050565b600082601f83011261047d5761047c610361565b5b813561048d848260208601610426565b91505092915050565b6000602082840312156104ac576104ab610357565b5b600082013567ffffffffffffffff8111156104ca576104c961035c565b5b6104d684828501610468565b91505092915050565b7f4e487b7100000000000000000000000000000000000000000000000000000000600052602260045260246000fd5b6000600282049050600182168061052657607f821691505b602082108103610539576105386104df565b5b50919050565b60008190508160005260206000209050919050565b60006020601f8301049050919050565b600082821b905092915050565b6000600883026105a17fffffffffffffffffffffffffffffffffffffffffffffffffffffffffffffffff82610564565b6105ab8683610564565b95508019841693508086168417925050509392505050565b6000819050919050565b6000819050919050565b60006105f26105ed6105e8846105c3565b6105cd565b6105c3565b9050919050565b6000819050919050565b61060c836105d7565b610620610618826105f9565b848454610571565b825550505050565b600090565b610635610628565b610640818484610603565b505050565b5b818110156106645761065960008261062d565b600181019050610646565b5050565b601f8211156106a95761067a8161053f565b61068384610554565b81016020851015610692578190505b6106a661069e85610554565b830182610645565b50505b505050565b600082821c905092915050565b60006106cc600019846008026106ae565b1980831691505092915050565b60006106e583836106bb565b9150826002028217905092915050565b6106fe82610236565b67ffffffffffffffff8111156107175761071661036b565b5b610721825461050e565b61072c828285610668565b600060209050601f83116001811461075f576000841561074d578287015190505b61075785826106d9565b8655506107bf565b601f19841661076d8661053f565b60005b8281101561079557848901518255600182019150602085019450602081019050610770565b868310156107b257848901516107ae601f8916826106bb565b8355505b6001600288020188555050505b50505050505056fea2646970667358221220e797f80a9fd5b986a2df195b021adaadb07f7074c70441e29d9a6976f610fbf464736f6c634300080f0033",
					"opcodes": "PUSH1 0x80 PUSH1 0x40 MSTORE PUSH1 0x40 MLOAD DUP1 PUSH1 0x40 ADD PUSH1 0x40 MSTORE DUP1 PUSH1 0xB DUP2 MSTORE PUSH1 0x20 ADD PUSH32 0x48656C6C6F20576F726C64000000000000000000000000000000000000000000 DUP2 MSTORE POP PUSH1 0x0 SWAP1 DUP2 PUSH3 0x4A SWAP2 SWAP1 PUSH3 0x31A JUMP JUMPDEST POP CALLVALUE DUP1 ISZERO PUSH3 0x58 JUMPI PUSH1 0x0 DUP1 REVERT JUMPDEST POP CALLER PUSH1 0x1 PUSH1 0x0 PUSH2 0x100 EXP DUP2 SLOAD DUP2 PUSH20 0xFFFFFFFFFFFFFFFFFFFFFFFFFFFFFFFFFFFFFFFF MUL NOT AND SWAP1 DUP4 PUSH20 0xFFFFFFFFFFFFFFFFFFFFFFFFFFFFFFFFFFFFFFFF AND MUL OR SWAP1 SSTORE POP PUSH3 0x401 JUMP JUMPDEST PUSH1 0x0 DUP2 MLOAD SWAP1 POP SWAP2 SWAP1 POP JUMP JUMPDEST PUSH32 0x4E487B7100000000000000000000000000000000000000000000000000000000 PUSH1 0x0 MSTORE PUSH1 0x41 PUSH1 0x4 MSTORE PUSH1 0x24 PUSH1 0x0 REVERT JUMPDEST PUSH32 0x4E487B7100000000000000000000000000000000000000000000000000000000 PUSH1 0x0 MSTORE PUSH1 0x22 PUSH1 0x4 MSTORE PUSH1 0x24 PUSH1 0x0 REVERT JUMPDEST PUSH1 0x0 PUSH1 0x2 DUP3 DIV SWAP1 POP PUSH1 0x1 DUP3 AND DUP1 PUSH3 0x122 JUMPI PUSH1 0x7F DUP3 AND SWAP2 POP JUMPDEST PUSH1 0x20 DUP3 LT DUP2 SUB PUSH3 0x138 JUMPI PUSH3 0x137 PUSH3 0xDA JUMP JUMPDEST JUMPDEST POP SWAP2 SWAP1 POP JUMP JUMPDEST PUSH1 0x0 DUP2 SWAP1 POP DUP2 PUSH1 0x0 MSTORE PUSH1 0x20 PUSH1 0x0 KECCAK256 SWAP1 POP SWAP2 SWAP1 POP JUMP JUMPDEST PUSH1 0x0 PUSH1 0x20 PUSH1 0x1F DUP4 ADD DIV SWAP1 POP SWAP2 SWAP1 POP JUMP JUMPDEST PUSH1 0x0 DUP3 DUP3 SHL SWAP1 POP SWAP3 SWAP2 POP POP JUMP JUMPDEST PUSH1 0x0 PUSH1 0x8 DUP4 MUL PUSH3 0x1A2 PUSH32 0xFFFFFFFFFFFFFFFFFFFFFFFFFFFFFFFFFFFFFFFFFFFFFFFFFFFFFFFFFFFFFFFF DUP3 PUSH3 0x163 JUMP JUMPDEST PUSH3 0x1AE DUP7 DUP4 PUSH3 0x163 JUMP JUMPDEST SWAP6 POP DUP1 NOT DUP5 AND SWAP4 POP DUP1 DUP7 AND DUP5 OR SWAP3 POP POP POP SWAP4 SWAP3 POP POP POP JUMP JUMPDEST PUSH1 0x0 DUP2 SWAP1 POP SWAP2 SWAP1 POP JUMP JUMPDEST PUSH1 0x0 DUP2 SWAP1 POP SWAP2 SWAP1 POP JUMP JUMPDEST PUSH1 0x0 PUSH3 0x1FB PUSH3 0x1F5 PUSH3 0x1EF DUP5 PUSH3 0x1C6 JUMP JUMPDEST PUSH3 0x1D0 JUMP JUMPDEST PUSH3 0x1C6 JUMP JUMPDEST SWAP1 POP SWAP2 SWAP1 POP JUMP JUMPDEST PUSH1 0x0 DUP2 SWAP1 POP SWAP2 SWAP1 POP JUMP JUMPDEST PUSH3 0x217 DUP4 PUSH3 0x1DA JUMP JUMPDEST PUSH3 0x22F PUSH3 0x226 DUP3 PUSH3 0x202 JUMP JUMPDEST DUP5 DUP5 SLOAD PUSH3 0x170 JUMP JUMPDEST DUP3 SSTORE POP POP POP POP JUMP JUMPDEST PUSH1 0x0 SWAP1 JUMP JUMPDEST PUSH3 0x246 PUSH3 0x237 JUMP JUMPDEST PUSH3 0x253 DUP2 DUP5 DUP5 PUSH3 0x20C JUMP JUMPDEST POP POP POP JUMP JUMPDEST JUMPDEST DUP2 DUP2 LT ISZERO PUSH3 0x27B JUMPI PUSH3 0x26F PUSH1 0x0 DUP3 PUSH3 0x23C JUMP JUMPDEST PUSH1 0x1 DUP2 ADD SWAP1 POP PUSH3 0x259 JUMP JUMPDEST POP POP JUMP JUMPDEST PUSH1 0x1F DUP3 GT ISZERO PUSH3 0x2CA JUMPI PUSH3 0x294 DUP2 PUSH3 0x13E JUMP JUMPDEST PUSH3 0x29F DUP5 PUSH3 0x153 JUMP JUMPDEST DUP2 ADD PUSH1 0x20 DUP6 LT ISZERO PUSH3 0x2AF JUMPI DUP2 SWAP1 POP JUMPDEST PUSH3 0x2C7 PUSH3 0x2BE DUP6 PUSH3 0x153 JUMP JUMPDEST DUP4 ADD DUP3 PUSH3 0x258 JUMP JUMPDEST POP POP JUMPDEST POP POP POP JUMP JUMPDEST PUSH1 0x0 DUP3 DUP3 SHR SWAP1 POP SWAP3 SWAP2 POP POP JUMP JUMPDEST PUSH1 0x0 PUSH3 0x2EF PUSH1 0x0 NOT DUP5 PUSH1 0x8 MUL PUSH3 0x2CF JUMP JUMPDEST NOT DUP1 DUP4 AND SWAP2 POP POP SWAP3 SWAP2 POP POP JUMP JUMPDEST PUSH1 0x0 PUSH3 0x30A DUP4 DUP4 PUSH3 0x2DC JUMP JUMPDEST SWAP2 POP DUP3 PUSH1 0x2 MUL DUP3 OR SWAP1 POP SWAP3 SWAP2 POP POP JUMP JUMPDEST PUSH3 0x325 DUP3 PUSH3 0xA0 JUMP JUMPDEST PUSH8 0xFFFFFFFFFFFFFFFF DUP2 GT ISZERO PUSH3 0x341 JUMPI PUSH3 0x340 PUSH3 0xAB JUMP JUMPDEST JUMPDEST PUSH3 0x34D DUP3 SLOAD PUSH3 0x109 JUMP JUMPDEST PUSH3 0x35A DUP3 DUP3 DUP6 PUSH3 0x27F JUMP JUMPDEST PUSH1 0x0 PUSH1 0x20 SWAP1 POP PUSH1 0x1F DUP4 GT PUSH1 0x1 DUP2 EQ PUSH3 0x392 JUMPI PUSH1 0x0 DUP5 ISZERO PUSH3 0x37D JUMPI DUP3 DUP8 ADD MLOAD SWAP1 POP JUMPDEST PUSH3 0x389 DUP6 DUP3 PUSH3 0x2FC JUMP JUMPDEST DUP7 SSTORE POP PUSH3 0x3F9 JUMP JUMPDEST PUSH1 0x1F NOT DUP5 AND PUSH3 0x3A2 DUP7 PUSH3 0x13E JUMP JUMPDEST PUSH1 0x0 JUMPDEST DUP3 DUP2 LT ISZERO PUSH3 0x3CC JUMPI DUP5 DUP10 ADD MLOAD DUP3 SSTORE PUSH1 0x1 DUP3 ADD SWAP2 POP PUSH1 0x20 DUP6 ADD SWAP5 POP PUSH1 0x20 DUP2 ADD SWAP1 POP PUSH3 0x3A5 JUMP JUMPDEST DUP7 DUP4 LT ISZERO PUSH3 0x3EC JUMPI DUP5 DUP10 ADD MLOAD PUSH3 0x3E8 PUSH1 0x1F DUP10 AND DUP3 PUSH3 0x2DC JUMP JUMPDEST DUP4 SSTORE POP JUMPDEST PUSH1 0x1 PUSH1 0x2 DUP9 MUL ADD DUP9 SSTORE POP POP POP JUMPDEST POP POP POP POP POP POP JUMP JUMPDEST PUSH2 0x7FD DUP1 PUSH3 0x411 PUSH1 0x0 CODECOPY PUSH1 0x0 RETURN INVALID PUSH1 0x80 PUSH1 0x40 MSTORE PUSH1 0x4 CALLDATASIZE LT PUSH2 0x34 JUMPI PUSH1 0x0 CALLDATALOAD PUSH1 0xE0 SHR DUP1 PUSH4 0x492BFA18 EQ PUSH2 0x39 JUMPI DUP1 PUSH4 0x8DA5CB5B EQ PUSH2 0x64 JUMPI DUP1 PUSH4 0xC3CCF402 EQ PUSH2 0x8F JUMPI JUMPDEST PUSH1 0x0 DUP1 REVERT JUMPDEST CALLVALUE DUP1 ISZERO PUSH2 0x45 JUMPI PUSH1 0x0 DUP1 REVERT JUMPDEST POP PUSH2 0x4E PUSH2 0xAB JUMP JUMPDEST PUSH1 0x40 MLOAD PUSH2 0x5B SWAP2 SWAP1 PUSH2 0x2CF JUMP JUMPDEST PUSH1 0x40 MLOAD DUP1 SWAP2 SUB SWAP1 RETURN JUMPDEST CALLVALUE DUP1 ISZERO PUSH2 0x70 JUMPI PUSH1 0x0 DUP1 REVERT JUMPDEST POP PUSH2 0x79 PUSH2 0x139 JUMP JUMPDEST PUSH1 0x40 MLOAD PUSH2 0x86 SWAP2 SWAP1 PUSH2 0x332 JUMP JUMPDEST PUSH1 0x40 MLOAD DUP1 SWAP2 SUB SWAP1 RETURN JUMPDEST PUSH2 0xA9 PUSH1 0x4 DUP1 CALLDATASIZE SUB DUP2 ADD SWAP1 PUSH2 0xA4 SWAP2 SWAP1 PUSH2 0x496 JUMP JUMPDEST PUSH2 0x15F JUMP JUMPDEST STOP JUMPDEST PUSH1 0x0 DUP1 SLOAD PUSH2 0xB8 SWAP1 PUSH2 0x50E JUMP JUMPDEST DUP1 PUSH1 0x1F ADD PUSH1 0x20 DUP1 SWAP2 DIV MUL PUSH1 0x20 ADD PUSH1 0x40 MLOAD SWAP1 DUP2 ADD PUSH1 0x40 MSTORE DUP1 SWAP3 SWAP2 SWAP1 DUP2 DUP2 MSTORE PUSH1 0x20 ADD DUP3 DUP1 SLOAD PUSH2 0xE4 SWAP1 PUSH2 0x50E JUMP JUMPDEST DUP1 ISZERO PUSH2 0x131 JUMPI DUP1 PUSH1 0x1F LT PUSH2 0x106 JUMPI PUSH2 0x100 DUP1 DUP4 SLOAD DIV MUL DUP4 MSTORE SWAP2 PUSH1 0x20 ADD SWAP2 PUSH2 0x131 JUMP JUMPDEST DUP3 ADD SWAP2 SWAP1 PUSH1 0x0 MSTORE PUSH1 0x20 PUSH1 0x0 KECCAK256 SWAP1 JUMPDEST DUP2 SLOAD DUP2 MSTORE SWAP1 PUSH1 0x1 ADD SWAP1 PUSH1 0x20 ADD DUP1 DUP4 GT PUSH2 0x114 JUMPI DUP3 SWAP1 SUB PUSH1 0x1F AND DUP3 ADD SWAP2 JUMPDEST POP POP POP POP POP DUP2 JUMP JUMPDEST PUSH1 0x1 PUSH1 0x0 SWAP1 SLOAD SWAP1 PUSH2 0x100 EXP SWAP1 DIV PUSH20 0xFFFFFFFFFFFFFFFFFFFFFFFFFFFFFFFFFFFFFFFF AND DUP2 JUMP JUMPDEST PUSH1 0x1 PUSH1 0x0 SWAP1 SLOAD SWAP1 PUSH2 0x100 EXP SWAP1 DIV PUSH20 0xFFFFFFFFFFFFFFFFFFFFFFFFFFFFFFFFFFFFFFFF AND PUSH20 0xFFFFFFFFFFFFFFFFFFFFFFFFFFFFFFFFFFFFFFFF AND CALLER PUSH20 0xFFFFFFFFFFFFFFFFFFFFFFFFFFFFFFFFFFFFFFFF AND SUB PUSH2 0x1C9 JUMPI DUP1 PUSH1 0x0 SWAP1 DUP2 PUSH2 0x1C3 SWAP2 SWAP1 PUSH2 0x6F5 JUMP JUMPDEST POP PUSH2 0x233 JUMP JUMPDEST PUSH1 0x1 PUSH1 0x0 SWAP1 SLOAD SWAP1 PUSH2 0x100 EXP SWAP1 DIV PUSH20 0xFFFFFFFFFFFFFFFFFFFFFFFFFFFFFFFFFFFFFFFF AND PUSH20 0xFFFFFFFFFFFFFFFFFFFFFFFFFFFFFFFFFFFFFFFF AND PUSH2 0x8FC CALLVALUE SWAP1 DUP2 ISZERO MUL SWAP1 PUSH1 0x40 MLOAD PUSH1 0x0 PUSH1 0x40 MLOAD DUP1 DUP4 SUB DUP2 DUP6 DUP9 DUP9 CALL SWAP4 POP POP POP POP ISZERO DUP1 ISZERO PUSH2 0x231 JUMPI RETURNDATASIZE PUSH1 0x0 DUP1 RETURNDATACOPY RETURNDATASIZE PUSH1 0x0 REVERT JUMPDEST POP JUMPDEST POP JUMP JUMPDEST PUSH1 0x0 DUP2 MLOAD SWAP1 POP SWAP2 SWAP1 POP JUMP JUMPDEST PUSH1 0x0 DUP3 DUP3 MSTORE PUSH1 0x20 DUP3 ADD SWAP1 POP SWAP3 SWAP2 POP POP JUMP JUMPDEST PUSH1 0x0 JUMPDEST DUP4 DUP2 LT ISZERO PUSH2 0x270 JUMPI DUP1 DUP3 ADD MLOAD DUP2 DUP5 ADD MSTORE PUSH1 0x20 DUP2 ADD SWAP1 POP PUSH2 0x255 JUMP JUMPDEST DUP4 DUP2 GT ISZERO PUSH2 0x27F JUMPI PUSH1 0x0 DUP5 DUP5 ADD MSTORE JUMPDEST POP POP POP POP JUMP JUMPDEST PUSH1 0x0 PUSH1 0x1F NOT PUSH1 0x1F DUP4 ADD AND SWAP1 POP SWAP2 SWAP1 POP JUMP JUMPDEST PUSH1 0x0 PUSH2 0x2A1 DUP3 PUSH2 0x236 JUMP JUMPDEST PUSH2 0x2AB DUP2 DUP6 PUSH2 0x241 JUMP JUMPDEST SWAP4 POP PUSH2 0x2BB DUP2 DUP6 PUSH1 0x20 DUP7 ADD PUSH2 0x252 JUMP JUMPDEST PUSH2 0x2C4 DUP2 PUSH2 0x285 JUMP JUMPDEST DUP5 ADD SWAP2 POP POP SWAP3 SWAP2 POP POP JUMP JUMPDEST PUSH1 0x0 PUSH1 0x20 DUP3 ADD SWAP1 POP DUP2 DUP2 SUB PUSH1 0x0 DUP4 ADD MSTORE PUSH2 0x2E9 DUP2 DUP5 PUSH2 0x296 JUMP JUMPDEST SWAP1 POP SWAP3 SWAP2 POP POP JUMP JUMPDEST PUSH1 0x0 PUSH20 0xFFFFFFFFFFFFFFFFFFFFFFFFFFFFFFFFFFFFFFFF DUP3 AND SWAP1 POP SWAP2 SWAP1 POP JUMP JUMPDEST PUSH1 0x0 PUSH2 0x31C DUP3 PUSH2 0x2F1 JUMP JUMPDEST SWAP1 POP SWAP2 SWAP1 POP JUMP JUMPDEST PUSH2 0x32C DUP2 PUSH2 0x311 JUMP JUMPDEST DUP3 MSTORE POP POP JUMP JUMPDEST PUSH1 0x0 PUSH1 0x20 DUP3 ADD SWAP1 POP PUSH2 0x347 PUSH1 0x0 DUP4 ADD DUP5 PUSH2 0x323 JUMP JUMPDEST SWAP3 SWAP2 POP POP JUMP JUMPDEST PUSH1 0x0 PUSH1 0x40 MLOAD SWAP1 POP SWAP1 JUMP JUMPDEST PUSH1 0x0 DUP1 REVERT JUMPDEST PUSH1 0x0 DUP1 REVERT JUMPDEST PUSH1 0x0 DUP1 REVERT JUMPDEST PUSH1 0x0 DUP1 REVERT JUMPDEST PUSH32 0x4E487B7100000000000000000000000000000000000000000000000000000000 PUSH1 0x0 MSTORE PUSH1 0x41 PUSH1 0x4 MSTORE PUSH1 0x24 PUSH1 0x0 REVERT JUMPDEST PUSH2 0x3A3 DUP3 PUSH2 0x285 JUMP JUMPDEST DUP2 ADD DUP2 DUP2 LT PUSH8 0xFFFFFFFFFFFFFFFF DUP3 GT OR ISZERO PUSH2 0x3C2 JUMPI PUSH2 0x3C1 PUSH2 0x36B JUMP JUMPDEST JUMPDEST DUP1 PUSH1 0x40 MSTORE POP POP POP JUMP JUMPDEST PUSH1 0x0 PUSH2 0x3D5 PUSH2 0x34D JUMP JUMPDEST SWAP1 POP PUSH2 0x3E1 DUP3 DUP3 PUSH2 0x39A JUMP JUMPDEST SWAP2 SWAP1 POP JUMP JUMPDEST PUSH1 0x0 PUSH8 0xFFFFFFFFFFFFFFFF DUP3 GT ISZERO PUSH2 0x401 JUMPI PUSH2 0x400 PUSH2 0x36B JUMP JUMPDEST JUMPDEST PUSH2 0x40A DUP3 PUSH2 0x285 JUMP JUMPDEST SWAP1 POP PUSH1 0x20 DUP2 ADD SWAP1 POP SWAP2 SWAP1 POP JUMP JUMPDEST DUP3 DUP2 DUP4 CALLDATACOPY PUSH1 0x0 DUP4 DUP4 ADD MSTORE POP POP POP JUMP JUMPDEST PUSH1 0x0 PUSH2 0x439 PUSH2 0x434 DUP5 PUSH2 0x3E6 JUMP JUMPDEST PUSH2 0x3CB JUMP JUMPDEST SWAP1 POP DUP3 DUP2 MSTORE PUSH1 0x20 DUP2 ADD DUP5 DUP5 DUP5 ADD GT ISZERO PUSH2 0x455 JUMPI PUSH2 0x454 PUSH2 0x366 JUMP JUMPDEST JUMPDEST PUSH2 0x460 DUP5 DUP3 DUP6 PUSH2 0x417 JUMP JUMPDEST POP SWAP4 SWAP3 POP POP POP JUMP JUMPDEST PUSH1 0x0 DUP3 PUSH1 0x1F DUP4 ADD SLT PUSH2 0x47D JUMPI PUSH2 0x47C PUSH2 0x361 JUMP JUMPDEST JUMPDEST DUP2 CALLDATALOAD PUSH2 0x48D DUP5 DUP3 PUSH1 0x20 DUP7 ADD PUSH2 0x426 JUMP JUMPDEST SWAP2 POP POP SWAP3 SWAP2 POP POP JUMP JUMPDEST PUSH1 0x0 PUSH1 0x20 DUP3 DUP5 SUB SLT ISZERO PUSH2 0x4AC JUMPI PUSH2 0x4AB PUSH2 0x357 JUMP JUMPDEST JUMPDEST PUSH1 0x0 DUP3 ADD CALLDATALOAD PUSH8 0xFFFFFFFFFFFFFFFF DUP2 GT ISZERO PUSH2 0x4CA JUMPI PUSH2 0x4C9 PUSH2 0x35C JUMP JUMPDEST JUMPDEST PUSH2 0x4D6 DUP5 DUP3 DUP6 ADD PUSH2 0x468 JUMP JUMPDEST SWAP2 POP POP SWAP3 SWAP2 POP POP JUMP JUMPDEST PUSH32 0x4E487B7100000000000000000000000000000000000000000000000000000000 PUSH1 0x0 MSTORE PUSH1 0x22 PUSH1 0x4 MSTORE PUSH1 0x24 PUSH1 0x0 REVERT JUMPDEST PUSH1 0x0 PUSH1 0x2 DUP3 DIV SWAP1 POP PUSH1 0x1 DUP3 AND DUP1 PUSH2 0x526 JUMPI PUSH1 0x7F DUP3 AND SWAP2 POP JUMPDEST PUSH1 0x20 DUP3 LT DUP2 SUB PUSH2 0x539 JUMPI PUSH2 0x538 PUSH2 0x4DF JUMP JUMPDEST JUMPDEST POP SWAP2 SWAP1 POP JUMP JUMPDEST PUSH1 0x0 DUP2 SWAP1 POP DUP2 PUSH1 0x0 MSTORE PUSH1 0x20 PUSH1 0x0 KECCAK256 SWAP1 POP SWAP2 SWAP1 POP JUMP JUMPDEST PUSH1 0x0 PUSH1 0x20 PUSH1 0x1F DUP4 ADD DIV SWAP1 POP SWAP2 SWAP1 POP JUMP JUMPDEST PUSH1 0x0 DUP3 DUP3 SHL SWAP1 POP SWAP3 SWAP2 POP POP JUMP JUMPDEST PUSH1 0x0 PUSH1 0x8 DUP4 MUL PUSH2 0x5A1 PUSH32 0xFFFFFFFFFFFFFFFFFFFFFFFFFFFFFFFFFFFFFFFFFFFFFFFFFFFFFFFFFFFFFFFF DUP3 PUSH2 0x564 JUMP JUMPDEST PUSH2 0x5AB DUP7 DUP4 PUSH2 0x564 JUMP JUMPDEST SWAP6 POP DUP1 NOT DUP5 AND SWAP4 POP DUP1 DUP7 AND DUP5 OR SWAP3 POP POP POP SWAP4 SWAP3 POP POP POP JUMP JUMPDEST PUSH1 0x0 DUP2 SWAP1 POP SWAP2 SWAP1 POP JUMP JUMPDEST PUSH1 0x0 DUP2 SWAP1 POP SWAP2 SWAP1 POP JUMP JUMPDEST PUSH1 0x0 PUSH2 0x5F2 PUSH2 0x5ED PUSH2 0x5E8 DUP5 PUSH2 0x5C3 JUMP JUMPDEST PUSH2 0x5CD JUMP JUMPDEST PUSH2 0x5C3 JUMP JUMPDEST SWAP1 POP SWAP2 SWAP1 POP JUMP JUMPDEST PUSH1 0x0 DUP2 SWAP1 POP SWAP2 SWAP1 POP JUMP JUMPDEST PUSH2 0x60C DUP4 PUSH2 0x5D7 JUMP JUMPDEST PUSH2 0x620 PUSH2 0x618 DUP3 PUSH2 0x5F9 JUMP JUMPDEST DUP5 DUP5 SLOAD PUSH2 0x571 JUMP JUMPDEST DUP3 SSTORE POP POP POP POP JUMP JUMPDEST PUSH1 0x0 SWAP1 JUMP JUMPDEST PUSH2 0x635 PUSH2 0x628 JUMP JUMPDEST PUSH2 0x640 DUP2 DUP5 DUP5 PUSH2 0x603 JUMP JUMPDEST POP POP POP JUMP JUMPDEST JUMPDEST DUP2 DUP2 LT ISZERO PUSH2 0x664 JUMPI PUSH2 0x659 PUSH1 0x0 DUP3 PUSH2 0x62D JUMP JUMPDEST PUSH1 0x1 DUP2 ADD SWAP1 POP PUSH2 0x646 JUMP JUMPDEST POP POP JUMP JUMPDEST PUSH1 0x1F DUP3 GT ISZERO PUSH2 0x6A9 JUMPI PUSH2 0x67A DUP2 PUSH2 0x53F JUMP JUMPDEST PUSH2 0x683 DUP5 PUSH2 0x554 JUMP JUMPDEST DUP2 ADD PUSH1 0x20 DUP6 LT ISZERO PUSH2 0x692 JUMPI DUP2 SWAP1 POP JUMPDEST PUSH2 0x6A6 PUSH2 0x69E DUP6 PUSH2 0x554 JUMP JUMPDEST DUP4 ADD DUP3 PUSH2 0x645 JUMP JUMPDEST POP POP JUMPDEST POP POP POP JUMP JUMPDEST PUSH1 0x0 DUP3 DUP3 SHR SWAP1 POP SWAP3 SWAP2 POP POP JUMP JUMPDEST PUSH1 0x0 PUSH2 0x6CC PUSH1 0x0 NOT DUP5 PUSH1 0x8 MUL PUSH2 0x6AE JUMP JUMPDEST NOT DUP1 DUP4 AND SWAP2 POP POP SWAP3 SWAP2 POP POP JUMP JUMPDEST PUSH1 0x0 PUSH2 0x6E5 DUP4 DUP4 PUSH2 0x6BB JUMP JUMPDEST SWAP2 POP DUP3 PUSH1 0x2 MUL DUP3 OR SWAP1 POP SWAP3 SWAP2 POP POP JUMP JUMPDEST PUSH2 0x6FE DUP3 PUSH2 0x236 JUMP JUMPDEST PUSH8 0xFFFFFFFFFFFFFFFF DUP2 GT ISZERO PUSH2 0x717 JUMPI PUSH2 0x716 PUSH2 0x36B JUMP JUMPDEST JUMPDEST PUSH2 0x721 DUP3 SLOAD PUSH2 0x50E JUMP JUMPDEST PUSH2 0x72C DUP3 DUP3 DUP6 PUSH2 0x668 JUMP JUMPDEST PUSH1 0x0 PUSH1 0x20 SWAP1 POP PUSH1 0x1F DUP4 GT PUSH1 0x1 DUP2 EQ PUSH2 0x75F JUMPI PUSH1 0x0 DUP5 ISZERO PUSH2 0x74D JUMPI DUP3 DUP8 ADD MLOAD SWAP1 POP JUMPDEST PUSH2 0x757 DUP6 DUP3 PUSH2 0x6D9 JUMP JUMPDEST DUP7 SSTORE POP PUSH2 0x7BF JUMP JUMPDEST PUSH1 0x1F NOT DUP5 AND PUSH2 0x76D DUP7 PUSH2 0x53F JUMP JUMPDEST PUSH1 0x0 JUMPDEST DUP3 DUP2 LT ISZERO PUSH2 0x795 JUMPI DUP5 DUP10 ADD MLOAD DUP3 SSTORE PUSH1 0x1 DUP3 ADD SWAP2 POP PUSH1 0x20 DUP6 ADD SWAP5 POP PUSH1 0x20 DUP2 ADD SWAP1 POP PUSH2 0x770 JUMP JUMPDEST DUP7 DUP4 LT ISZERO PUSH2 0x7B2 JUMPI DUP5 DUP10 ADD MLOAD PUSH2 0x7AE PUSH1 0x1F DUP10 AND DUP3 PUSH2 0x6BB JUMP JUMPDEST DUP4 SSTORE POP JUMPDEST PUSH1 0x1 PUSH1 0x2 DUP9 MUL ADD DUP9 SSTORE POP POP POP JUMPDEST POP POP POP POP POP POP JUMP INVALID LOG2 PUSH5 0x6970667358 0x22 SLT KECCAK256 0xE7 SWAP8 0xF8 EXP SWAP16 0xD5 0xB9 DUP7 LOG2 0xDF NOT JUMPDEST MUL BYTE 0xDA 0xAD 0xB0 PUSH32 0x7074C70441E29D9A6976F610FBF464736F6C634300080F003300000000000000 "
				},
				"gasEstimates": {
					"creation": {
						"codeDepositCost": "409000",
						"executionCost": "infinite",
						"totalCost": "infinite"
					},
					"external": {
						"myString()": "infinite",
						"owner()": "2514",
						"updateString(string)": "infinite"
					}
				},
				"methodIdentifiers": {
					"myString()": "492bfa18",
					"owner()": "8da5cb5b",
					"updateString(string)": "c3ccf402"
				}
			},
			"storageLayout": {
				"storage": [
					{
						"astId": 4,
						"contract": "contracts/SampleContract.sol:SampleContract",
						"label": "myString",
						"offset": 0,
						"slot": "0",
						"type": "t_string_storage"
					},
					{
						"astId": 6,
						"contract": "contracts/SampleContract.sol:SampleContract",
						"label": "owner",
						"offset": 0,
						"slot": "1",
						"type": "t_address"
					}
				],
				"types": {
					"t_address": {
						"encoding": "inplace",
						"label": "address",
						"numberOfBytes": "20"
					},
					"t_string_storage": {
						"encoding": "bytes",
						"label": "string",
						"numberOfBytes": "32"
					}
				}
			},
			"userdoc": {
				"kind": "user",
				"methods": {},
				"version": 1
			}
		}
	}
}